:100000000C9474020C9491020C9491020C94910241
:100010000C9491020C9491020C9491020C94910214
:100020000C9491020C9491020C9491020C94910204
:100030000C9491020C9491020C9439060C94910248
:100040000C9491020C9491020C94F9060C94B7064E
:100050000C9491020C9491020C9491020C949102D4
:100060000C9491020C94910278057D058205660539
:100070006A056E0573055B013001FB00BF008F0050
:10008000820043616E63696F6E65733A200D002ACA
:100090002052455345543A207265696E696369611F
:1000A00020656C2073697374656D6120616C2065D7
:1000B000737461646F20696E696369616C0D002AF5
:1000C000204E554D3A206E756D65726F2064652027
:1000D00063616E63696F6E20612073656C65636335
:1000E000696F6E6172206465206C61206C69737445
:1000F00061205B312061204E5D0D002A2053544F5A
:10010000503A2064657469656E65206C6120726583
:1001100070726F64756363696F6E2064656C2073C1
:100120006F6E69646F20656E20637572736F0D006A
:100130002A20504C41593A20726570726F64756381
:1001400065206C612063616E63696F6E2073656CFE
:10015000656363696F6E6164610D004D656E753A2C
:100160000D007B04B9033A03A7026C015A6F726257
:1001700061323A643D342C6F3D352C623D3132356D
:100180003A31366323362C3264362C32702C3136B9
:100190006323362C3264362C32702C333265362C85
:1001A000333264362C33326323362C3264362C32AD
:1001B000702C31366323362C3264362C32702C315D
:1001C00036622C3263362C32702C333264362C3348
:1001D0003263362C3332622C3263362C32702C313F
:1001E0003661232C32622C702C38702C33326336FB
:1001F0002C3332622C3332612C3332672C3332622F
:100200002C32612C32702C3332612C3332672C3318
:100210003266232C3332612C31672C31702C3863D9
:1002200023362C3864362C3864362C3864362C3817
:1002300064362C3864362C3864362C3864362C38C6
:100240006323362C3864362C3864362C3864362CCC
:100250003864362C3864362C313665362C313664A9
:10026000362C31366323362C313665362C386323F1
:10027000362C3864362C3864362C3864362C386486
:10028000362C3864362C3864362C3864362C386377
:1002900023362C3864362C3864362C3864362C38A7
:1002A00064362C386436005866696C65733A643D70
:1002B000342C6F3D352C623D3132353A652C622C41
:1002C000612C622C64362C32622E2C31702C652C01
:1002D000622C612C622C65362C32622E2C31702CF3
:1002E00067362C6623362C65362C64362C65362C06
:1002F00032622E2C31702C67362C6623362C6536F4
:100300002C64362C6623362C32622E2C31702C65F0
:100310002C622C612C622C64362C32622E2C3170B3
:100320002C652C622C612C622C65362C32622E2CB2
:1003300031702C65362C32622E006B696C6C696EE4
:1003400067206D6520736F66746C793A643D342C58
:100350006F3D352C623D39303A702C38652C662C57
:10036000672C38612C612C38672C642C672E2C701C
:100370002C38702C38612C672C38662C38652C385A
:10038000652C38662C32632C702C38652C662C67F3
:100390002C38612C612C38672C612C622C38622C33
:1003A0003863362C38622C3136612C38672C313664
:1003B000612C32612C32612E00496E6469616E617C
:1003C0003A643D342C6F3D352C623D3235303A6510
:1003D0002C38702C38662C38672C38702C316336EA
:1003E0002C38702E2C642C38702C38652C31662CEF
:1003F000702E2C672C38702C38612C38622C387099
:100400002C3166362C702C612C38702C38622C32D2
:1004100063362C3264362C3265362C652C38702CC1
:1004200038662C38672C38702C3163362C702C646D
:10043000362C38702C3865362C31662E362C672CCD
:1004400038702C38672C652E362C38702C64362C7E
:1004500038702C38672C652E362C38702C64362C6E
:1004600038702C38672C662E362C38702C65362C5C
:1004700038702C3864362C32633600546865536902
:100480006D70736F6E733A643D342C6F3D352C6222
:100490003D3136303A632E362C65362C6623362CA9
:1004A0003861362C672E362C65362C63362C386135
:1004B0002C3866232C3866232C3866232C32672C84
:1004C00038702C38702C3866232C3866232C38660C
:1004D000232C38672C61232E2C3863362C38633656
:1004E0002C3863362C63360011241FBECFEFD8E0C2
:1004F000DEBFCDBF12E0A0E0B1E0E0E6F5E102C072
:1005000005900D92A037B107D9F724E0A0E7B2E03B
:1005100001C01D92A038B207E1F70E949E020C9420
:10052000AE0A0C94000098E088E10FB6F894A89504
:10053000809360000FBE90936000089587E60E944C
:100540005F060E94C8020E9413062FEF81EE94E01E
:10055000215080409040E1F700C000000E94B302AB
:100560000E942E06FDCF80E091E00E94830681E18B
:1005700091E00E9483068EE191E00E94830685E36C
:1005800091E00E94830682E491E00E948306089530
:10059000AF92BF92CF92DF92EF92FF921F93CF93D1
:1005A000DF93CDB7DEB7CDB6DEB610E026C0EDB630
:1005B000FEB6E12FF0E0DF01A050BE4F8C912DB7C9
:1005C0003EB7281B31090FB6F8943EBF0FBE2DBFB2
:1005D0008DB79EB701965C01EE0FFF1FEA58FF4FE3
:1005E000659174910E94B507C5010E9483060FB6FC
:1005F000F894FEBE0FBEEDBE1F5F1630C0F20FB600
:10060000F894DEBE0FBECDBEDF91CF911F91FF905B
:10061000EF90DF90CF90BF90AF900895FC014423FE
:1006200039F020E030E023C095132DC04F5F01C0AA
:1006300040E0242F30E0DF01A20FB31F9C919923EB
:1006400031F0DB01A20FB31F5C915111EDCF91117D
:1006500008C0FB01E20FF31F8081882321F080E0B6
:10066000089580E0089581E008952F5F3F4FDF01F6
:10067000A20FB31F8C918111F8CFCF010E94970771
:1006800080937002089580E00895CF93DF93EC018A
:1006900040E06FE471E00E940E03882321F081E0C6
:1006A0008093710230C040E064E571E0CE010E94A9
:1006B0000E03882321F082E08093710224C040E081
:1006C00069E571E0CE010E940E03882321F084E0E9
:1006D0008093710218C041E06FE571E0CE010E9485
:1006E0000E03882351F080917002882331F0863008
:1006F00020F483E08093710206C084E691E00E94BA
:10070000830610927002DF91CF9108950F931F938B
:10071000CF93DF93CDB7DEB76E970FB6F894DEBFF9
:100720000FBECDBF80917102823099F118F48130F3
:1007300039F05FC08330C1F1843009F451C059C031
:10074000809170029FEF980F9630D8F41F928F938C
:1007500089E791E09F938F938E010F5F1F4F1F9347
:100760000F930E94C407C8010E9483068091700203
:100770000E943F040F900F900F900F900F900F90DA
:1007800004C081E991E00E9483068FEF809371029B
:1007900030C082EC91E00E94830680E00E94040455
:1007A0008FEF8093710225C0809170021F928F930A
:1007B00085ED91E09F938F938E010F5F1F4F1F93E5
:1007C0000F930E94C407C8010E9483068FEF809395
:1007D00071020F900F900F900F900F900F9009C023
:1007E0008FEE91E00E9483068FEF809371020E944A
:1007F00093026E960FB6F894DEBF0FBECDBFDF91A9
:10080000CF911F910F9108958093720208954091A6
:10081000730250917402452BD1F770937E0260935E
:100820007D02E0E8F0E02081206420839C0140E02C
:1008300050E060E072E18AE790E00E9450072150AA
:100840003109309389002093880081E090E09093F3
:10085000740280937302089580917D0290917E02CC
:10086000009731F0019790937E0280937D02089566
:1008700010928000109274021092730208954F92A9
:100880005F926F927F92AF92BF92CF92DF92EF9280
:10089000FF920F931F93CF93DF93CDB7DEB7EDB6E3
:1008A000FEB6E82FF0E0EE0FFF1FDF01AB59BD4FA2
:1008B0008D919C912DB73EB7281B390B0FB6F8943C
:1008C0003EBF0FBE2DBF8DB79EB701968C01EE596E
:1008D000FE4F659174910E94B50784E080937C027D
:1008E0008FE390E090937B0280937A0286E080937E
:1008F0007F0202C00F5F1F4FD8018C918A33D1F75E
:10090000F8013196AAC0843661F510927C02DF01AD
:10091000119601C011968C918D33E1F301C01196AF
:100920008C918032E1F380538A3010F480937C0202
:10093000FD01319611968C9190ED980F9A3070F4DC
:1009400090917C02990F292F220F220F920F890F6D
:10095000805380937C02319601C0319680818C3225
:10096000E1F380818F36C1F410927F02319601C08D
:10097000319680818D33E1F301C0319680818032E0
:10098000E1F380538A3010F480937F02319601C0E6
:10099000319680818C32E1F38081823609F05AC031
:1009A00010927B0210927A02DF01119601C011961B
:1009B0008C918D33E1F301C011968C918032E1F37B
:1009C00090ED980F9A3030F490E0C09790937B02AE
:1009D00080937A02FD01319611964C91119780ED2A
:1009E000840F8A3090F520917A0230917B02C90100
:1009F000880F991F220F331F220F331F220F331F1F
:100A0000820F931F840F911DC09790937B02809358
:100A10007A02319612962C9130ED320F3A30A8F4CA
:100A2000AC01440F551F880F991F880F991F880F1D
:100A3000991F840F951F820F911DC09790937B0281
:100A400080937A02319601C0319680818C32E1F335
:100A500001C0319680818C32E1F380818A3309F0C4
:100A600052CF8F010F5F1F4FC1C0C0907F02B09067
:100A70007C0280538A30C8F4A8014F5F5F4FF801B1
:100A8000918120ED290F2A3070F4880FB82EBB0C0D
:100A9000BB0C8B0D980F0F2EF0EDBF2EF02DB90E65
:100AA0000E5F1F4F02C0B82E8A01D801EC918E2F25
:100AB00090E0FC01E156F109E730F10520F4EC5C2F
:100AC000FF4F0C946F07DD24DA941DC06894DD2479
:100AD000D1F819C06894DD24D2F815C00F2EF5E0C6
:100AE000DF2EF02D10C00F2EF7E0DF2EF02D0BC003
:100AF0000F2EF9E0DF2EF02D06C00F2EFBE0DF2ECB
:100B0000F02D01C0D12CF8013196D80111968C91AD
:100B1000833211F4D394319680818E3221F4319650
:100B2000AA24A39401C0A12C808180538A3010F4A0
:100B30003196C82E80818E3219F43196AA24A3945E
:100B40008F0102C00F5F1F4FF80180818C32D1F3FB
:100B500020917A0230917B0240E050E060E67AEE2C
:100B600080E090E00E9450074B2C512C612C712C9E
:100B7000CA01B901A30192010E945007220F331F3D
:100B8000220F331FAA2039F0B901660F771F260FF5
:100B9000371F36952795FFEFDF16C1F08C2D90E0BB
:100BA0000497FC01EE0FFF1FE80FF91FEE0FFF1F68
:100BB000EE0FFF1FED0DF11DEE0FFF1FEB5FFD4F61
:100BC000B901808191810E9407040AC030937E029E
:100BD00020937D0281E090E09093740280937302F1
:100BE0008091730290917402892BD1F7D8018C9176
:100BF000882329F090917202992309F436CF0FB619
:100C0000F894FEBE0FBEEDBEDF91CF911F910F9104
:100C1000FF90EF90DF90CF90BF90AF907F906F905C
:100C20005F904F90089588EF87BD82E084BD93E088
:100C300095BD80936E00E0E8F0E080818064808361
:100C4000E1E8F0E080818960808384B1826084B9CA
:100C50007894089581E080937502089580917502DB
:100C6000882321F0109275020E94A8060E94860334
:100C700008951F920F920FB60F9211242F933F9356
:100C80004F935F936F937F938F939F93AF93BF9394
:100C9000EF93FF930E942A060E942C04FF91EF918C
:100CA000BF91AF919F918F917F916F915F914F9184
:100CB0003F912F910F900FBE0F901F901895E1EC70
:100CC000F0E0108296E09093C2001092C5008093ED
:100CD000C4008081886080838081806180830895E2
:100CE000E1ECF0E08081806280830895909177024A
:100CF000E92FF0E0E058FD4F80839F5F90937702EB
:100D00000E94700608950F931F93CF938C01C0E04B
:100D100003C00E947606CF5FF801EC0FF11D8081C1
:100D20008111F7CFCF911F910F910895E1ECF0E081
:100D300080818F7D80830895E1ECF0E08081806880
:100D400080830895E1ECF0E080818F7780830895BF
:100D50000E949C0680917902882341F080E893E00C
:100D60000E944503109276021092790208951F9214
:100D70000F920FB60F9211242F933F934F935F93CF
:100D80006F937F938F939F93AF93BF93EF93FF9353
:100D90008091780290917702891306C0E1ECF0E02F
:100DA00080818F7D808314C0E82FF0E0E058FD4FF4
:100DB0009081992331F08F5F809378029093C600E1
:100DC00007C0E1ECF0E080818F7D80830E94960671
:100DD000FF91EF91BF91AF919F918F917F916F9113
:100DE0005F914F913F912F910F900FBE0F901F90E9
:100DF00018951F920F920FB60F9211242F933F93C5
:100E00004F935F936F937F938F939F93AF93BF9312
:100E1000CF93EF93FF93C091C600CD3069F0CA30F5
:100E200059F080917602E82FF0E0E058FC4FC08343
:100E30008F5F809376021FC0CD3051F4809176028F
:100E4000E82FF0E0E058FC4F10828F5F809376022D
:100E5000CA3089F481E08093790240E064E571E072
:100E600080E893E00E940E03882319F081E00E943D
:100E700004040E94A2068C2F0E947606FF91EF9137
:100E8000CF91BF91AF919F918F917F916F915F9122
:100E90004F913F912F910F900FBE0F901F9018957B
:100EA000052E97FB1EF400940E94670757FD07D09C
:100EB0000E94750707FC03D04EF40C946707509509
:100EC0004095309521953F4F4F4F5F4F0895909536
:100ED0008095709561957F4F8F4F9F4F0895EE0FCE
:100EE000FF1F0590F491E02D0994A1E21A2EAA1B90
:100EF000BB1BFD010DC0AA1FBB1FEE1FFF1FA217CA
:100F0000B307E407F50720F0A21BB30BE40BF50BC6
:100F1000661F771F881F991F1A9469F7609570954F
:100F2000809590959B01AC01BD01CF010895FC0116
:100F300088279927E89421912032E9F3293010F08D
:100F40002E30C8F32B3241F02D3239F4689404C0AE
:100F50000E94BC07820F911D219120532A30C0F3BB
:100F60001EF4909581959F4F0895FB01DC0105903B
:100F70000D920020E1F708957AE0979F902D879FCA
:100F8000802D910D11240895AEE0B0E0EAECF7E079
:100F90000C94850A0D891E8986E08C831A83098347
:100FA0008FEF9FE79E838D83AE01475E5F4F6F8912
:100FB000788DCE0101960E94E607EF81F885E00F5B
:100FC000F11F10822E96E4E00C94A10AABE0B0E091
:100FD000ECEEF7E00C94770A6C017B018A01FC01CE
:100FE00017821682838181FFCCC1CE0101963C011C
:100FF000F6019381F70193FD859193FF81917F0124
:10100000882309F4BAC1853239F493FD859193FFA1
:1010100081917F01853229F4B60190E00E94DD09BB
:10102000E7CF912C212C312CFFE1F315D8F08B3236
:1010300079F038F4803279F08332A1F4232D2061E5
:101040001DC08D3261F0803369F4232D216016C0FC
:10105000832D8260382EE32DE4603E2E2AC0F32DCE
:10106000F8601DC037FC2DC020ED280F2A3040F05D
:101070008E32B9F436FC81C1232D2064322E19C082
:1010800036FE06C08AE0989E200D1124922E11C0D3
:10109000EAE02E9E200D1124222EF32DF0623F2E29
:1010A00008C08C3621F4832D8068382E02C0883623
:1010B00041F4F70193FD859193FF81917F018111A7
:1010C000B3CF982F9F7D9554933028F40C5F1F4F1A
:1010D0009FE399830DC0833631F0833771F08335F8
:1010E00009F059C021C0F801808189830E5F1F4F2C
:1010F00088248394912C530113C02801F2E04F0EF1
:10110000511CF801A080B18036FE03C0692D70E04B
:1011100002C06FEF7FEFC5010E94D2094C0182012E
:10112000F32DFF773F2E16C0280122E0420E511CFE
:10113000F801A080B18036FE03C0692D70E002C0C6
:101140006FEF7FEFC5010E94C7094C01F32DF068D6
:101150003F2E820133FC1BC0822D90E08816990639
:10116000B0F4B60180E290E00E94DD092A94F4CF49
:10117000F50137FC859137FE81915F01B60190E062
:101180000E94DD0921102A9421E0821A910881141D
:10119000910471F7E8C0843611F0893641F5F80101
:1011A00037FE07C060817181828193810C5F1F4F80
:1011B00008C060817181072E000C880B990B0E5FAF
:1011C0001F4FF32DFF763F2E97FF09C09095809516
:1011D000709561957F4F8F4F9F4FF0683F2E2AE0AB
:1011E00030E0A3010E94190A882E861845C0853771
:1011F00031F4232D2F7EB22E2AE030E025C0932D2E
:10120000997FB92E8F36C1F018F4883579F0B5C0C2
:10121000803719F0883721F0B0C0E92FE061BE2E89
:10122000B4FE0DC0FB2DF460BF2E09C034FE0AC011
:10123000292F2660B22E06C028E030E005C020E14C
:1012400030E002C020E132E0F801B7FE07C0608163
:101250007181828193810C5F1F4F06C06081718113
:1012600080E090E00E5F1F4FA3010E94190A882EB4
:101270008618FB2DFF773F2E36FE0DC0232D2E7FC7
:10128000A22E891458F434FE0BC032FC09C0832D01
:101290008E7EA82E05C0B82CA32C03C0B82C01C08C
:1012A000B92CA4FE0FC0FE01E80DF11D8081803332
:1012B00021F49A2D997EA92E09C0A2FE06C0B394EE
:1012C000B39404C08A2D867809F0B394A3FC11C0AE
:1012D000A0FE06C0B21488F4280C922C9B180EC0F5
:1012E000B21460F4B60180E290E00E94DD09B3948C
:1012F000F7CFB21418F42B1802C0982C212CA4FE9E
:1013000010C0B60180E390E00E94DD09A2FE17C084
:10131000A1FC03C088E790E002C088E590E0B60138
:101320000CC08A2D867859F0A1FE02C08BE201C064
:1013300080E2A7FC8DE2B60190E00E94DD098914ED
:1013400038F4B60180E390E00E94DD099A94F7CF6B
:101350008A94F301E80DF11D8081B60190E00E94AE
:10136000DD098110F5CF222009F442CEB60180E2DA
:1013700090E00E94DD092A94F6CFF60186819781DC
:1013800002C08FEF9FEF2B96E2E10C94930AFC01D1
:101390000590615070400110D8F7809590958E0FA0
:1013A0009F1F0895FC016150704001900110D8F713
:1013B000809590958E0F9F1F08950F931F93CF9345
:1013C000DF93FB01238121FD03C08FEF9FEF2CC032
:1013D00022FF16C046815781248135814217530769
:1013E00044F4A081B1819D012F5F3F4F3183208361
:1013F0008C93268137812F5F3F4F3783268314C01C
:101400008B01EC01FB010084F185E02D0995892B0E
:10141000E1F6D80116968D919C9117970196179633
:101420009C938E931697CE01DF91CF911F910F91D0
:101430000895FA01AA27283051F1203181F1E8946A
:101440006F936E7F6E5F7F4F8F4F9F4FAF4FB1E0B7
:101450003ED0B4E03CD0670F781F891F9A1FA11DB2
:10146000680F791F8A1F911DA11D6A0F711D811DB3
:10147000911DA11D20D009F468943F912AE0269F78
:1014800011243019305D3193DEF6CF010895462FD7
:101490004770405D4193B3E00FD0C9F7F6CF462FB8
:1014A0004F70405D4A3318F0495D31FD4052419321
:1014B00002D0A9F7EACFB4E0A695979587957795DE
:1014C0006795BA95C9F700976105710508959B0165
:1014D000AC010A2E06945795479537952795BA95EE
:1014E000C9F7620F731F841F951FA01D08952F92C7
:1014F0003F924F925F926F927F928F929F92AF92A4
:10150000BF92CF92DF92EF92FF920F931F93CF93F0
:10151000DF93CDB7DEB7CA1BDB0B0FB6F894DEBF87
:101520000FBECDBF09942A88398848885F846E84AD
:101530007D848C849B84AA84B984C884DF80EE80F7
:10154000FD800C811B81AA81B981CE0FD11D0FB600
:10155000F894DEBF0FBECDBFED010895F894FFCF24
:1015600009312E204C6F732053696D70736F6E0DAF
:101570000009322E20496E6469616E610D000933E5
:101580002E204B696C6C696E67206D6520736F66E9
:10159000746C790D0009342E20582046696C6573EF
:1015A0000D0009352E205A6F72626120320D0050F5
:1015B0004C41590053544F50005245534554004E2E
:1015C000554D2000436F6D616E646F206E6F207605
:1015D000616C69646F2E0D0A0009526570726F6448
:1015E000756369656E646F092D2D3E202564200D9D
:1015F000000A094572726F723A204E6F207365209F
:1016000068612073656C656363696F6E61646F20E8
:10161000756E612063616E63696F6E2E2E2E200AD7
:101620000D000943616E63696F6E20646574656EB9
:101630006964610D000943616E63696F6E20656CBA
:101640006567696461092D2D3E202564200D0052D7
:101650006573657465616E646F202E2E2E0A0D0011
:10166000082C363D3106011501260137014A015D7E
:1016700001720188019F01B801D201EE010B022A1B
:10168000024B026E029302BA02E40210033E0370A0
:1016900003A403DC03170455049704DC0427057531
:1016A00005C80520067C06E0064907B8072D08AAEC
:1016B000082D09B9094D0AEA0A900B400CF80CC034
:1016C0000D900E6F0F6C00C1007E0092003A010079
:00000001FF
