S01600007470332D456E7472656761626C652E73726563D1
S11300000C9474020C9491020C9491020C9491023D
S11300100C9491020C9491020C9491020C94910210
S11300200C9491020C9491020C9491020C94910200
S11300300C9491020C9491020C9422060C9491025B
S11300400C9491020C9491020C94E2060C94A00678
S11300500C9491020C9491020C9491020C949102D0
S11300600C9491020C949102610566056B054F0591
S1130070530557055C055B013001FB00BF008F0091
S1130080820043616E63696F6E65733A200D002AC6
S11300902052455345543A207265696E696369611B
S11300A020656C2073697374656D6120616C2065D3
S11300B0737461646F20696E696369616C0D002AF1
S11300C0204E554D3A206E756D65726F2064652023
S11300D063616E63696F6E20612073656C65636331
S11300E0696F6E6172206465206C61206C69737441
S11300F061205B312061204E5D0D002A2053544F56
S1130100503A2064657469656E65206C612072657F
S113011070726F64756363696F6E2064656C2073BD
S11301206F6E69646F20656E20637572736F0D0066
S11301302A20504C41593A20726570726F6475637D
S113014065206C612063616E63696F6E2073656CFA
S1130150656363696F6E6164610D004D656E753A28
S11301600D007B04B9033A03A7026C015A6F726253
S113017061323A643D342C6F3D352C623D31323569
S11301803A31366323362C3264362C32702C3136B5
S11301906323362C3264362C32702C333265362C81
S11301A0333264362C33326323362C3264362C32A9
S11301B0702C31366323362C3264362C32702C3159
S11301C036622C3263362C32702C333264362C3344
S11301D03263362C3332622C3263362C32702C313B
S11301E03661232C32622C702C38702C33326336F7
S11301F02C3332622C3332612C3332672C3332622B
S11302002C32612C32702C3332612C3332672C3314
S11302103266232C3332612C31672C31702C3863D5
S113022023362C3864362C3864362C3864362C3813
S113023064362C3864362C3864362C3864362C38C2
S11302406323362C3864362C3864362C3864362CC8
S11302503864362C3864362C313665362C313664A5
S1130260362C31366323362C313665362C386323ED
S1130270362C3864362C3864362C3864362C386482
S1130280362C3864362C3864362C3864362C386373
S113029023362C3864362C3864362C3864362C38A3
S11302A064362C386436005866696C65733A643D6C
S11302B0342C6F3D352C623D3132353A652C622C3D
S11302C0612C622C64362C32622E2C31702C652CFD
S11302D0622C612C622C65362C32622E2C31702CEF
S11302E067362C6623362C65362C64362C65362C02
S11302F032622E2C31702C67362C6623362C6536F0
S11303002C64362C6623362C32622E2C31702C65EC
S11303102C622C612C622C64362C32622E2C3170AF
S11303202C652C622C612C622C65362C32622E2CAE
S113033031702C65362C32622E006B696C6C696EE0
S113034067206D6520736F66746C793A643D342C54
S11303506F3D352C623D39303A702C38652C662C53
S1130360672C38612C612C38672C642C672E2C7018
S11303702C38702C38612C672C38662C38652C3856
S1130380652C38662C32632C702C38652C662C67EF
S11303902C38612C612C38672C612C622C38622C2F
S11303A03863362C38622C3136612C38672C313660
S11303B0612C32612C32612E00496E6469616E6178
S11303C03A643D342C6F3D352C623D3235303A650C
S11303D02C38702C38662C38672C38702C316336E6
S11303E02C38702E2C642C38702C38652C31662CEB
S11303F0702E2C672C38702C38612C38622C387095
S11304002C3166362C702C612C38702C38622C32CE
S113041063362C3264362C3265362C652C38702CBD
S113042038662C38672C38702C3163362C702C6469
S1130430362C38702C3865362C31662E362C672CC9
S113044038702C38672C652E362C38702C64362C7A
S113045038702C38672C652E362C38702C64362C6A
S113046038702C38672C662E362C38702C65362C58
S113047038702C3864362C326336005468655369FE
S11304806D70736F6E733A643D342C6F3D352C621E
S11304903D3136303A632E362C65362C6623362CA5
S11304A03861362C672E362C65362C63362C386131
S11304B02C3866232C3866232C3866232C32672C80
S11304C038702C38702C3866232C3866232C386608
S11304D0232C38672C61232E2C3863362C38633652
S11304E02C3863362C63360011241FBECFEFD8E0BE
S11304F0DEBFCDBF12E0A0E0B1E0E2E3F5E102C06F
S113050005900D92AE31B107D9F724E0AEE1B2E027
S113051001C01D92AE32B207E1F70E949E020C9414
S1130520970A0C94000098E088E10FB6F894A89517
S1130530809360000FBE90936000089587E60E9448
S113054048060E94B1020E94FC052FEF81EE94E060
S1130550215080409040E1F700C000000E9417063F
S1130560FDCFAF92BF92CF92DF92EF92FF921F9393
S1130570CF93DF93CDB7DEB7CDB6DEB610E026C09D
S1130580EDB6FEB6E12FF0E0DF01A155BE4F8C9130
S11305902DB73EB7281B31090FB6F8943EBF0FBEE6
S11305A02DBF8DB79EB701965C01EE0FFF1FEA5871
S11305B0FF4F659174910E949E07C5010E946C06CD
S11305C00FB6F894FEBE0FBEEDBE1F5F1630C0F22C
S11305D00FB6F894DEBE0FBECDBEDF91CF911F9152
S11305E0FF90EF90DF90CF90BF90AF900895FC0103
S11305F0442339F020E030E023C095132DC04F5F31
S113060001C040E0242F30E0DF01A20FB31F9C9112
S1130610992331F0DB01A20FB31F5C915111EDCF8F
S1130620911108C0FB01E20FF31F8081882321F0A0
S113063080E0089580E0089581E008952F5F3F4FA2
S1130640DF01A20FB31F8C918111F8CFCF010E945B
S1130650800780931E02089580E00895CF93DF936E
S1130660EC0140E060E071E00E94F702882321F091
S113067081E080931F0230C040E065E071E0CE016C
S11306800E94F702882321F082E080931F0224C095
S113069040E06AE071E0CE010E94F702882321F075
S11306A084E080931F0218C041E060E171E0CE0154
S11306B00E94F702882351F080911E02882331F0B2
S11306C0873020F483E080931F0206C085E191E027
S11306D00E946C0610921E02DF91CF9108950F9331
S11306E01F93CF93DF93CDB7DEB76E970FB6F89411
S11306F0DEBF0FBECDBF80911F02823099F118F486
S1130700813039F05FC08330C1F1843009F451C0C5
S113071059C080911E029FEF980F9630D8F41F9213
S11307208F938AE291E09F938F938E010F5F1F4F07
S11307301F930F930E94AD07C8010E946C0680911D
S11307401E020E9428040F900F900F900F900F909C
S11307500F9004C082E491E00E946C068FEF8093B6
S11307601F0230C083E791E00E946C0680E00E9483
S1130770ED038FEF80931F0225C080911E021F920C
S11307808F9385E891E09F938F938E010F5F1F4FA6
S11307901F930F930E94AD07C8010E946C068FEF50
S11307A080931F020F900F900F900F900F900F9057
S11307B009C08FE991E00E946C068FEF80931F02BD
S11307C00E9493026E960FB6F894DEBF0FBECDBFA3
S11307D0DF91CF911F910F91089580932002089586
S11307E04091210250912202452BD1F770932C02A3
S11307F060932B02E0E8F0E02081206420839C01D8
S113080040E050E060E072E18AE790E00E9439073E
S113081021503109309389002093880081E090E0D1
S11308209093220280932102089580912B0290914B
S11308302C02009731F0019790932C0280932B02A5
S113084008951092800010922202109221020895BD
S11308504F925F926F927F92AF92BF92CF92DF924C
S1130860EF92FF920F931F93CF93DF93CDB7DEB731
S1130870EDB6FEB6E82FF0E0EE0FFF1FDF01AC5E31
S1130880BD4F8D919C912DB73EB7281B390B0FB6E8
S1130890F8943EBF0FBE2DBF8DB79EB701968C0155
S11308A0EE59FE4F659174910E949E0784E08093F7
S11308B02A028FE390E0909329028093280286E035
S11308C080932D0202C00F5F1F4FD8018C918A3391
S11308D0D1F7F8013196AAC0843661F510922A0244
S11308E0DF01119601C011968C918D33E1F301C0A3
S11308F011968C918032E1F380538A3010F4809306
S11309002A02FD01319611968C9190ED980F9A3040
S113091070F490912A02990F292F220F220F920F1F
S1130920890F805380932A02319601C031968081C9
S11309308C32E1F380818F36C1F410922D0231960E
S113094001C0319680818D33E1F301C031968081FD
S11309508032E1F380538A3010F480932D02319673
S113096001C0319680818C32E1F38081823609F0B6
S11309705AC01092290210922802DF01119601C078
S113098011968C918D33E1F301C011968C918032D4
S1130990E1F390ED980F9A3030F490E0C097909383
S11309A0290280932802FD01319611964C911197EA
S11309B080ED840F8A3090F520912802309129022D
S11309C0C901880F991F220F331F220F331F220FD3
S11309D0331F820F931F840F911DC0979093290298
S11309E080932802319612962C9130ED320F3A30D2
S11309F0A8F4AC01440F551F880F991F880F991F45
S1130A00880F991F840F951F820F911DC097909393
S1130A10290280932802319601C0319680818C325C
S1130A20E1F301C0319680818C32E1F380818A3315
S1130A3009F052CF8F010F5F1F4FC1C0C0902D022C
S1130A40B0902A0280538A30C8F4A8014F5F5F4FE8
S1130A50F801918120ED290F2A3070F4880FB82E07
S1130A60BB0CBB0C8B0D980F0F2EF0EDBF2EF02D91
S1130A70B90E0E5F1F4F02C0B82E8A01D801EC9147
S1130A808E2F90E0FC01E156F109E730F10520F4E6
S1130A90EC5CFF4F0C945807DD24DA941DC0689475
S1130AA0DD24D1F819C06894DD24D2F815C00F2EC6
S1130AB0F5E0DF2EF02D10C00F2EF7E0DF2EF02D25
S1130AC00BC00F2EF9E0DF2EF02D06C00F2EFBE039
S1130AD0DF2EF02D01C0D12CF8013196D8011196EA
S1130AE08C91833211F4D394319680818E3221F427
S1130AF03196AA24A39401C0A12C808180538A300A
S1130B0010F43196C82E80818E3219F43196AA24BD
S1130B10A3948F0102C00F5F1F4FF80180818C32B4
S1130B20D1F3209128023091290240E050E060E6A0
S1130B307AEE80E090E00E9439074B2C512C612C16
S1130B40712CCA01B901A30192010E943907220F35
S1130B50331F220F331FAA2039F0B901660F771F04
S1130B60260F371F36952795FFEFDF16C1F08C2D22
S1130B7090E00497FC01EE0FFF1FE80FF91FEE0F42
S1130B80FF1FEE0FFF1FED0DF11DEE0FFF1FEC54C5
S1130B90FE4FB901808191810E94F0030AC0309315
S1130BA02C0220932B0281E090E090932202809308
S1130BB021028091210290912202892BD1F7D80140
S1130BC08C91882329F090912002992309F436CF3F
S1130BD00FB6F894FEBE0FBEEDBEDF91CF911F910C
S1130BE00F91FF90EF90DF90CF90BF90AF907F90E8
S1130BF06F905F904F90089588EF87BD82E084BD29
S1130C0093E095BD80936E00E0E8F0E0808180641D
S1130C108083E1E8F0E080818960808384B1826030
S1130C2084B97894089581E0809323020895809193
S1130C302302882321F0109223020E9491060E942D
S1130C406F0308951F920F920FB60F9211242F93E2
S1130C503F934F935F936F937F938F939F93AF9340
S1130C60BF93EF93FF930E9413060E941504FF9114
S1130C70EF91BF91AF919F918F917F916F915F9110
S1130C804F913F912F910F900FBE0F901F90189589
S1130C90E1ECF0E0108296E09093C2001092C5005F
S1130CA08093C40080818860808380818061808398
S1130CB00895E1ECF0E08081806280830895909152
S1130CC02502E92FF0E0E25DFD4F80839F5F909362
S1130CD025020E94590608950F931F93CF938C0108
S1130CE0C0E003C00E945F06CF5FF801EC0FF11D66
S1130CF080818111F7CFCF911F910F910895E1EC7D
S1130D00F0E080818F7D80830895E1ECF0E08081C4
S1130D10806880830895E1ECF0E080818F778083A0
S1130D2008950E94850680912702882341F08EE26F
S1130D3093E00E942E031092240210922702089539
S1130D401F920F920FB60F9211242F933F934F933C
S1130D505F936F937F938F939F93AF93BF93EF931F
S1130D60FF938091260290912502891306C0E1EC3D
S1130D70F0E080818F7D808314C0E82FF0E0E25D95
S1130D80FD4F9081992331F08F5F809326029093D9
S1130D90C60007C0E1ECF0E080818F7D80830E9473
S1130DA07F06FF91EF91BF91AF919F918F917F91BA
S1130DB06F915F914F913F912F910F900FBE0F90C4
S1130DC01F9018951F920F920FB60F9211242F9314
S1130DD03F934F935F936F937F938F939F93AF93BF
S1130DE0BF93CF93EF93FF93C091C600CD3069F0CA
S1130DF0CA3059F080912402E82FF0E0E25DFC4F04
S1130E00C0838F5F809324021FC0CD3051F4809142
S1130E102402E82FF0E0E25DFC4F10828F5F8093A4
S1130E202402CA3089F481E08093270240E065E01F
S1130E3071E08EE293E00E94F702882319F081E0CA
S1130E400E94ED030E948B068C2F0E945F06FF9187
S1130E50EF91CF91BF91AF919F918F917F916F91BE
S1130E605F914F913F912F910F900FBE0F901F9064
S1130E701895052E97FB1EF400940E94500757FD09
S1130E8007D00E945E0707FC03D04EF40C94500771
S1130E9050954095309521953F4F4F4F5F4F0895A2
S1130EA090958095709561957F4F8F4F9F4F0895D2
S1130EB0EE0FFF1F0590F491E02D0994A1E21A2E84
S1130EC0AA1BBB1BFD010DC0AA1FBB1FEE1FFF1FEA
S1130ED0A217B307E407F50720F0A21BB30BE40B3A
S1130EE0F50B661F771F881F991F1A9469F7609581
S1130EF07095809590959B01AC01BD01CF0108953B
S1130F00FC0188279927E89421912032E9F32930BC
S1130F1010F02E30C8F32B3241F02D3239F468949E
S1130F2004C00E94A507820F911D219120532A30ED
S1130F30C0F31EF4909581959F4F0895FB01DC0149
S1130F4005900D920020E1F708957AE0979F902D87
S1130F50879F802D910D11240895AEE0B0E0E3EB5E
S1130F60F7E00C946E0A0D891E8986E08C831A833F
S1130F7009838FEF9FE79E838D83AE01475E5F4FAA
S1130F806F89788DCE0101960E94CF07EF81F88595
S1130F90E00FF11F10822E96E4E00C948A0AABE075
S1130FA0B0E0E5EDF7E00C94600A6C017B018A0186
S1130FB0FC0117821682838181FFCCC1CE01019688
S1130FC03C01F6019381F70193FD859193FF819193
S1130FD07F01882309F4BAC1853239F493FD8591E0
S1130FE093FF81917F01853229F4B60190E00E943C
S1130FF0C609E7CF912C212C312CFFE1F315D8F051
S11310008B3279F038F4803279F08332A1F4232DD5
S113101020611DC08D3261F0803369F4232D21607D
S113102016C0832D8260382EE32DE4603E2E2AC044
S1131030F32DF8601DC037FC2DC020ED280F2A3099
S113104040F08E32B9F436FC81C1232D2064322E57
S113105019C036FE06C08AE0989E200D1124922EF7
S113106011C0EAE02E9E200D1124222EF32DF062F1
S11310703F2E08C08C3621F4832D8068382E02C0A0
S1131080883641F4F70193FD859193FF81917F01A7
S11310908111B3CF982F9F7D9554933028F40C5F22
S11310A01F4F9FE399830DC0833631F0833771F06E
S11310B0833509F059C021C0F801808189830E5F0E
S11310C01F4F88248394912C530113C02801F2E00C
S11310D04F0E511CF801A080B18036FE03C0692D6B
S11310E070E002C06FEF7FEFC5010E94BB094C01A5
S11310F08201F32DFF773F2E16C0280122E0420E15
S1131100511CF801A080B18036FE03C0692D70E047
S113111002C06FEF7FEFC5010E94B0094C01F32DAF
S1131120F0683F2E820133FC1BC0822D90E08816AC
S11311309906B0F4B60180E290E00E94C6092A94B0
S1131140F4CFF50137FC859137FE81915F01B6013B
S113115090E00E94C60921102A9421E0821A910885
S11311608114910471F7E8C0843611F0893641F591
S1131170F80137FE07C060817181828193810C5F21
S11311801F4F08C060817181072E000C880B990BDA
S11311900E5F1F4FF32DFF763F2E97FF09C09095EA
S11311A08095709561957F4F8F4F9F4FF0683F2ECC
S11311B02AE030E0A3010E94020A882E861845C066
S11311C0853731F4232D2F7EB22E2AE030E025C05E
S11311D0932D997FB92E8F36C1F018F4883579F0A4
S11311E0B5C0803719F0883721F0B0C0E92FE0612D
S11311F0BE2EB4FE0DC0FB2DF460BF2E09C034FE1C
S11312000AC0292F2660B22E06C028E030E005C0AF
S113121020E130E002C020E132E0F801B7FE07C06F
S113122060817181828193810C5F1F4F06C0608150
S1131230718180E090E00E5F1F4FA3010E94020ABB
S1131240882E8618FB2DFF773F2E36FE0DC0232DEA
S11312502E7FA22E891458F434FE0BC032FC09C030
S1131260832D8E7EA82E05C0B82CA32C03C0B82CC9
S113127001C0B92CA4FE0FC0FE01E80DF11D808150
S1131280803321F49A2D997EA92E09C0A2FE06C0AE
S1131290B394B39404C08A2D867809F0B394A3FC64
S11312A011C0A0FE06C0B21488F4280C922C9B181E
S11312B00EC0B21460F4B60180E290E00E94C60948
S11312C0B394F7CFB21418F42B1802C0982C212C25
S11312D0A4FE10C0B60180E390E00E94C609A2FEFD
S11312E017C0A1FC03C088E790E002C088E590E045
S11312F0B6010CC08A2D867859F0A1FE02C08BE29B
S113130001C080E2A7FC8DE2B60190E00E94C6090C
S1131310891438F4B60180E390E00E94C6099A94D7
S1131320F7CF8A94F301E80DF11D8081B60190E0B6
S11313300E94C6098110F5CF222009F442CEB601DD
S113134080E290E00E94C6092A94F6CFF6018681D5
S1131350978102C08FEF9FEF2B96E2E10C947C0AF9
S1131360FC010590615070400110D8F7809590956C
S11313708E0F9F1F0895FC01615070400190011071
S1131380D8F7809590958E0F9F1F08950F931F9304
S1131390CF93DF93FB01238121FD03C08FEF9FEFE8
S11313A02CC022FF16C04681578124813581421703
S11313B0530744F4A081B1819D012F5F3F4F3183D6
S11313C020838C93268137812F5F3F4F3783268379
S11313D014C08B01EC01FB010084F185E02D09951B
S11313E0892BE1F6D80116968D919C911797019659
S11313F017969C938E931697CE01DF91CF911F91F0
S11314000F910895FA01AA27283051F1203181F172
S1131410E8946F936E7F6E5F7F4F8F4F9F4FAF4FF8
S1131420B1E03ED0B4E03CD0670F781F891F9A1F0B
S1131430A11D680F791F8A1F911DA11D6A0F711DBF
S1131440811D911DA11D20D009F468943F912AE0CB
S1131450269F11243019305D3193DEF6CF010895B3
S1131460462F4770405D4193B3E00FD0C9F7F6CFE4
S1131470462F4F70405D4A3318F0495D31FD4052AC
S1131480419302D0A9F7EACFB4E0A6959795879542
S113149077956795BA95C9F7009761057105089521
S11314A09B01AC010A2E06945795479537952795CD
S11314B0BA95C9F7620F731F841F951FA01D089565
S11314C02F923F924F925F926F927F928F929F9250
S11314D0AF92BF92CF92DF92EF92FF920F931F933E
S11314E0CF93DF93CDB7DEB7CA1BDB0B0FB6F894EF
S11314F0DEBF0FBECDBF09942A88398848885F842F
S11315006E847D848C849B84AA84B984C884DF809F
S1131510EE80FD800C811B81AA81B981CE0FD11D83
S11315200FB6F894DEBF0FBECDBFED010895F89459
S1051530FFCFE7
S1131532504C41590053544F5000524553455400A6
S11315424E554D2000436F6D616E646F206E6F20A7
S113155276616C69646F2E0D0A0009526570726FB0
S113156264756369656E646F092D2D3E20256420C0
S11315720D000A094572726F723A204E6F2073652C
S11315822068612073656C656363696F6E61646F63
S113159220756E612063616E63696F6E2E2E2E203C
S11315A20A0D0043616E63696F6E20646574656E33
S11315B26964610D000943616E63696F6E20656C35
S11315C26567696461092D2D3E202564200D005252
S11315D26573657465616E646F202E2E2E0D00088E
S11315E22C363D3106011501260137014A015D0100
S11315F2720188019F01B801D201EE010B022A0295
S11316024B026E029302BA02E40210033E03700319
S1131612A403DC03170455049704DC0427057505A9
S1131622C80520067C06E0064907B8072D08AA0863
S11316322D09B9094D0AEA0A900B400CF80CC00DA9
S1111642900E6F0F6C00C1007E0092003A0102
S9030000FC
