:100000000C9434000C9451000C9451000C94510049
:100010000C9451000C9451000C9451000C9451001C
:100020000C9451000C9451000C9451000C9451000C
:100030000C9451000C9451000C942A010C94510022
:100040000C9451000C9451000C94F6010C94B401E2
:100050000C9451000C9451000C9451000C945100DC
:100060000C9451000C94510011241FBECFEFD8E026
:10007000DEBFCDBF12E0A0E0B1E0ECE8F4E002C0EA
:1000800005900D92A034B107D9F724E0A0E4B2E0C6
:1000900001C01D92A934B207E1F70E9453000C94ED
:1000A00044020C94000087E60E944E010E945D000D
:1000B0000E9400010E941D01FDCF80E091E00E949E
:1000C000720188E091E00E94720185E391E00E9454
:1000D00072018CE691E00E9472018AEA91E00E942E
:1000E00072010895CF93DF93EC0120E030E004C06B
:1000F000941319C02F5F3F4FD901FE01E20FF31F88
:100100009081992331F0FB01E20FF31F40814111EF
:10011000EFCF91110BC0A60FB71F8C91882349F028
:1001200080E090E008C080E090E005C080E090E0D2
:1001300002C081E090E0DF91CF910895CF93DF93EB
:10014000EC016CED71E00E947200892B21F081E0DE
:100150008093400225C061EE71E0CE010E947200E2
:10016000892B21F082E0809340021AC066EE71E094
:10017000CE010E947200892B21F083E0809340021F
:100180000FC06AEE71E0CE010E947200892B21F04F
:1001900084E08093400204C080EF91E00E947201ED
:1001A000DF91CF91089580914002823089F018F458
:1001B000813031F00895833099F08430C9F008958A
:1001C00085E092E00E9472018FEF809340020895D3
:1001D00083E192E00E9472018FEF809340020895C4
:1001E00081E292E00E9472018FEF809340020895B5
:1001F0008FE292E00E9472018FEF80934002089597
:1002000088EF87BD82E084BD93E095BD80936E004A
:10021000E0E8F0E0808180648083E1E8F0E08081C4
:100220008960808384B1826084B97894089581E084
:100230008093430280934202089580914302882371
:1002400031F01092430281E492E00E94A5010E94E5
:10025000D30008951F920F920FB60F9211242F937F
:100260003F934F935F936F937F938F939F93AF933E
:10027000BF93EF93FF930E941701FF91EF91BF91FE
:10028000AF919F918F917F916F915F914F913F912E
:100290002F910F900FBE0F901F901895E1ECF0E09A
:1002A000108296E09093C2001092C5008093C40023
:1002B0008081886080838081806180830895E1EC03
:1002C000F0E0808180628083089590914502E92F5B
:1002D000F0E0E75BFD4F80839F5F909345020E94B3
:1002E0005F010895EF92FF921F93CF93DF9300D0A9
:1002F000CDB7DEB77C011A82198210E006C0BE01BC
:100300006F5F7F4F0E9465011F5FF701E10FF11DD5
:1003100080818111F4CF0F900F90DF91CF911F91C9
:10032000FF90EF900895E1ECF0E080818F7D808375
:100330000895E1ECF0E08081806880830895E1EC2D
:10034000F0E080818F77808308950E9499018091E9
:100350004802882341F089E493E00E949E001092B5
:1003600044021092480208951F920F920FB60F9206
:1003700011242F933F934F935F936F937F938F93AA
:100380009F93AF93BF93EF93FF9380914602909119
:100390004502891306C0E1ECF0E080818F7D808307
:1003A00014C0E82FF0E0E75BFD4F9081992331F016
:1003B0008F5F809346029093C60007C0E1ECF0E0A7
:1003C00080818F7D80830E949301FF91EF91BF9187
:1003D000AF919F918F917F916F915F914F913F91DD
:1003E0002F910F900FBE0F901F9018951F920F9294
:1003F0000FB60F9211242F933F934F935F936F93F8
:100400007F938F939F93AF93BF93CF93EF93FF937C
:10041000C091C600CD3069F0CA3059F080914402D5
:10042000E82FF0E0E75BFC4FC0838F5F80934402CE
:1004300013C0CD3051F480914402E82FF0E0E75B27
:10044000FC4F10828F5F80934402CA3029F481E010
:10045000809348020E949F016091470270E08C2FB8
:100460000E946501FF91EF91CF91BF91AF919F9154
:100470008F917F916F915F914F913F912F910F904D
:0C0480000FBE0F901F901895F894FFCF4E
:10048C004D656E753A0A0D00092A20504C41593AB7
:10049C0020726570726F64756365206C6120636196
:1004AC006E63696F6E2073656C656363696F6E61F3
:1004BC0064610A0D00092A2053544F503A20646598
:1004CC007469656E65206C6120726570726F6475FD
:1004DC006363696F6E2064656C20736F6E69646F03
:1004EC0020656E20637572736F0A0D00092A204E09
:1004FC00554D3A206E756D65726F20646520636191
:10050C006E63696F6E20612073656C656363696FE0
:10051C006E6172206465206C61206C69737461205B
:10052C005B312061204E5D0A0D00092A2052455393
:10053C0045543A207265696E6963696120656C2067
:10054C0073697374656D6120616C2065737461648B
:10055C006F20696E696369616C0A0D00504C4159DA
:10056C000053544F50004E554D00524553455400C6
:10057C00436F6D616E646F206E6F2076616C696481
:10058C006F2E0D0A0045737461646F20706C617975
:10059C000D0A0045737461646F2073746F700D0ADB
:1005AC000045737461646F206E756D200D0A0045F3
:1005BC00737461646F2072657365742E0D0A00008C
:00000001FF
