:100000000C9434000C9451000C9451000C94510049
:100010000C9451000C9451000C9451000C9451001C
:100020000C9451000C9451000C9451000C9451000C
:100030000C9451000C9451000C941D010C9451002F
:100040000C9451000C9451000C94F0010C94AE01EE
:100050000C9451000C9451000C9451000C945100DC
:100060000C9451000C94510011241FBECFEFD8E026
:10007000DEBFCDBF12E0A0E0B1E0E6E6F4E002C0F2
:1000800005900D92AA34B107D9F723E0AAE4B2E0B3
:1000900001C01D92AC35B207E1F70E9453000C94E9
:1000A00031020C94000087E60E9441010E945D002D
:1000B0000E94F3000E941001FDCF80E091E00E94B9
:1000C000650188E091E00E94650185E391E00E946E
:1000D00065018CE691E00E9465018AEA91E00E9448
:1000E000650108950F931F93CF93DF93CDB7DEB7CC
:1000F0002A970FB6F894DEBF0FBECDBF8C018AE001
:10010000F801DE01119601900D928A95E1F76CEDF0
:1001100071E0C8010E942802892B21F481E08093BC
:100120004A0225C061EE71E0C8010E942802892BB5
:1001300021F482E080934A021AC066EE71E0C801A1
:100140000E942802892B21F483E080934A020FC089
:100150006AEE71E0C8010E942802892B21F484E034
:1001600080934A0204C080EF91E00E946501CE01B5
:1001700001960E9465012A960FB6F894DEBF0FBE65
:10018000CDBFDF91CF911F910F91089580914A02C9
:10019000823089F018F4813031F00895833099F07D
:1001A0008430C9F0089587E092E00E9465018FEFE6
:1001B00080934A02089587E192E00E9465018FEFE3
:1001C00080934A02089587E292E00E9465018FEFD2
:1001D00080934A02089587E392E00E9465018FEFC1
:1001E00080934A02089588EF87BD82E084BD93E042
:1001F00095BD80936E00E0E8F0E0808180648083AC
:10020000E1E8F0E080818960808384B1826084B914
:100210007894089581E080934D0280934C02089574
:1002200080914D02882331F010924D028BE492E0D0
:100230000E9498010E94C60008951F920F920FB667
:100240000F9211242F933F934F935F936F937F935C
:100250008F939F93AF93BF93EF93FF930E940A01F5
:10026000FF91EF91BF91AF919F918F917F916F918E
:100270005F914F913F912F910F900FBE0F901F9064
:100280001895E1ECF0E0108296E09093C200109295
:10029000C5008093C40080818860808380818061F4
:1002A00080830895E1ECF0E080818062808308958E
:1002B00090914F02E92FF0E0EE5AFD4F80839F5F4F
:1002C00090934F020E9452010895EF92FF921F9364
:1002D000CF93DF9300D0CDB7DEB77C011A821982AD
:1002E00010E006C0BE016F5F7F4F0E9458011F5F84
:1002F000F701E10FF11D80818111F4CF0F900F9074
:10030000DF91CF911F91FF90EF900895E1ECF0E025
:1003100080818F7D80830895E1ECF0E080818068AA
:1003200080830895E1ECF0E080818F7780830895E9
:100330000E948C0180915102882379F082E593E03C
:100340000E94650160914E0270E082E593E00E9498
:10035000720010924E021092510208951F920F9255
:100360000FB60F9211242F933F934F935F936F9388
:100370007F938F939F93AF93BF93EF93FF9380915E
:10038000500290914F02891306C0E1ECF0E08081A9
:100390008F7D808314C0E82FF0E0EE5AFD4F9081EE
:1003A000992331F08F5F809350029093C60007C06D
:1003B000E1ECF0E080818F7D80830E948601FF91D7
:1003C000EF91BF91AF919F918F917F916F915F91CD
:1003D0004F913F912F910F900FBE0F901F90189546
:1003E0001F920F920FB60F9211242F933F934F93AA
:1003F0005F936F937F938F939F93AF93BF93EF938D
:10040000FF939091C6009D3069F080914E028A3032
:1004100048F4E82FF0E0EE5AFC4F90838F5F809312
:100420004E0205C081E0809351020E949201FF912B
:10043000EF91BF91AF919F918F917F916F915F915C
:100440004F913F912F910F900FBE0F901F901895D5
:10045000FB01DC018D91019080190110D9F3990BFA
:060460000895F894FFCF9F
:100466004D656E753A0A0D00092A20504C41593ADD
:1004760020726570726F64756365206C61206361BC
:100486006E63696F6E2073656C656363696F6E6119
:1004960064610A0D00092A2053544F503A206465BE
:1004A6007469656E65206C6120726570726F647523
:1004B6006363696F6E2064656C20736F6E69646F29
:1004C60020656E20637572736F0A0D00092A204E2F
:1004D600554D3A206E756D65726F206465206361B7
:1004E6006E63696F6E20612073656C656363696F07
:1004F6006E6172206465206C61206C697374612082
:100506005B312061204E5D0A0D00092A20524553B9
:1005160045543A207265696E6963696120656C208D
:1005260073697374656D6120616C206573746164B1
:100536006F20696E696369616C0A0D00504C415900
:100546000053544F50004E554D00524553455400EC
:100556000A09436F6D616E646F206E6F2076616C61
:1005660069646F2E0A0D000A0945737461646F2071
:10057600706C61790A0D000A0965737461646F20F5
:1005860073746F700A0D000A0965737461646F20D5
:100596006E756D200A0D000A0965737461646F201B
:0A05A60072657365742E0A0D0000E3
:00000001FF
