S01600007470332D456E7472656761626C652E73726563D1
S11300000C9434000C9451000C9451000C94510045
S11300100C9451000C9451000C9451000C94510018
S11300200C9451000C9451000C9451000C94510008
S11300300C9451000C9451000C9451000C945100F8
S11300400C9451000C9451000C9451000C945100E8
S11300500C9451000C9451000C9451000C945100D8
S11300600C9451000C94510011241FBECFEFD8E022
S1130070DEBFCDBF11E0A0E0B1E0EEE1F2E002C0EE
S113008005900D92AC30B107D9F721E0ACE0B1E0B6
S113009001C01D92A73DB207E1F70E9453000C94E2
S11300A00D010C940000CF93DF9300D0CDB7DEB7E1
S11300B01A82198287E60E94A00080E091E00E94E3
S11300C07F00CE0101960E94D00087EA91E6019755
S11300D0F1F700C00000F5CF90910D01943648F47B
S11300E0E92FF0E0E15FFE4F80839F5F90930D0165
S11300F008958FEF9FEFFB01918380830895EF9222
S1130100FF921F93CF93DF9300D0CDB7DEB77C016E
S11301101A82198210E006C0BE016F5F7F4F0E94F1
S11301206C001F5FF701E10FF11D80818111F4CF95
S11301300F900F90DF91CF911F91FF90EF90089552
S1130140E1ECF0E0108296E09093C2001092C500BA
S11301508093C400808188608083808180618083F3
S1130160089540E050E0BA014F5F5F4F6F4F7F4FFB
S113017021F09091C00095FFF7CF452B462B472BDC
S113018011F08093C6000895FC019091C00099235A
S11301902CF48091C600808381E0089580E0089566
S11301A00F931F93CF93DF931F92CDB7DEB78C01CC
S11301B0E0910E0180910D01E81760F4F0E0E15F39
S11301C0FE4F80810E94B10080910E018F5F809369
S11301D00E0104C010920E0110920D01CE01019681
S11301E00E94C400882399F080910C01843650F455
S11301F0E82FF0E0ED58FE4F998190838F5F809354
S11302000C0105C08FEF9FEFF801918380830F905D
S1110210DF91CF911F910F910895F894FFCFC5
S10F021E484F4C4120424F43410A0D0060
S9030000FC
