:100000000C9434000C9451000C9451000C94510049
:100010000C9451000C9451000C9451000C9451001C
:100020000C9451000C9451000C9451000C9451000C
:100030000C9451000C9451000C9451000C945100FC
:100040000C9451000C9451000C9451000C945100EC
:100050000C9451000C9451000C9451000C945100DC
:100060000C9451000C94510011241FBECFEFD8E026
:10007000DEBFCDBF11E0A0E0B1E0E2E0F2E002C0FF
:1000800005900D92A230B107D9F721E0A2E0B1E0CE
:1000900001C01D92A83DB207E1F70E946A000C94CE
:1000A000FF000C940000E6E6F1E001900020E9F783
:1000B0003197AF014656514066E671E08AEC91E017
:1000C0000E94D400089564E670E08AEC91E00E94FA
:1000D000E4000895AF92CF92DF92EF92FF920F93D8
:1000E0001F93CF93DF930F2EF3E3AF2EF02D0F2E40
:1000F000F3E6CF2EF0E0DF2EF02D0F2EF3E5EF2EFE
:10010000F0E0FF2EF02D04E610E022E031E044E6BE
:1001100050E066E671E08AEC91E00E94AB0041E0BD
:1001200050E060E071E08AEC91E00E94D400CAECFB
:10013000D1E0EA85FB850995EA81FB8180818A30DF
:10014000B1F7DF91CF911F910F91FF90EF90DF906A
:10015000CF90AF900895AF92CF92DF92EF92FF923F
:100160000F931F93FC017183608333832283558334
:10017000448317830683F186E086D386C2869093F4
:10018000D7018093D6011092C500A092C4001092AE
:10019000C10086E08093C2001F910F91FF90EF9005
:1001A000DF90CF90AF900895FC0124813581241712
:1001B00035074CF0808191810E94F600E1ECF0E07F
:1001C0008081806280830895FC01868197818617F3
:1001D00097074CF022819381E1ECF0E080818F77EA
:1001E0008083822F089580E090E00895FB01DC0178
:1001F00002C001900D9241505040D8F70895F894F4
:02020000FFCF2E
:02020200610099
:00000001FF
