S01600007470332D456E7472656761626C652E73726563D1
S11300000C9434000C9451000C9451000C94510045
S11300100C9451000C9451000C9451000C94510018
S11300200C9451000C9451000C9451000C94510008
S11300300C9451000C9451000C949A000C945100AF
S11300400C9451000C9451000C9481010C943F01C8
S11300500C9451000C9451000C9451000C945100D8
S11300600C9451000C94510011241FBECFEFD8E022
S1130070DEBFCDBF11E0A0E0B1E0E8E8F3E002C0EC
S113008005900D92AC3DB107D9F722E0ACEDB1E09B
S113009001C01D92AD3EB207E1F70E9453000C94DB
S11300A0C2010C94000087E60E94BE000E945D001D
S11300B00E9472000E948F00FDCF80E091E00E94B8
S11300C0E20088E091E00E94E20085E391E00E9472
S11300D0E2008CE691E00E94E2008AEA91E00E944C
S11300E0E200089588EF87BD82E084BD93E095BD6A
S11300F080936E00E0E8F0E0808180648083E1E832
S1130100F0E080818960808384B1826084B97894CE
S1130110089581E08093DE018093DD01089580914C
S1130120DE01882331F01092DE018CED91E00E9413
S1130130150108951F920F920FB60F9211242F9359
S11301403F934F935F936F937F938F939F93AF935B
S1130150BF93EF93FF930E948900FF91EF91BF91AA
S1130160AF919F918F917F916F915F914F913F914B
S11301702F910F900FBE0F901F901895E1ECF0E0B7
S1130180108296E09093C2001092C5008093C40040
S11301908081886080838081806180830895E1EC20
S11301A0F0E080818062808308959091E001E92FDE
S11301B0F0E0ED51FE4F80839F5F9093E0010E9439
S11301C0CF000895EF92FF921F93CF93DF9300D057
S11301D0CDB7DEB77C011A82198210E006C0BE01D9
S11301E06F5F7F4F0E94D5001F5FF701E10FF11D84
S11301F080818111F4CF0F900F90DF91CF911F91E7
S1130200FF90EF900895E1ECF0E080818F7D808392
S11302100895E1ECF0E08081806880830895E1EC4A
S1130220F0E080818F7780830895CF93DF93CDB7FB
S1130230DEB72A970FB6F894DEBF0FBECDBF0E947B
S113024009018091E201882389F04091DF0150E0A7
S113025063EE72E0CE0101960E94B901CE010196CF
S11302600E94E2001092E2011092DF012A960FB67A
S1130270F894DEBF0FBECDBFDF91CF9108951F92DA
S11302800F920FB60F9211242F933F934F935F93C6
S11302906F937F938F939F93AF93BF93EF93FF934A
S11302A08091E1019091E001891306C0E1ECF0E056
S11302B080818F7D808314C0E82FF0E0ED51FE4FE4
S11302C09081992331F08F5F8093E1019093C60070
S11302D007C0E1ECF0E080818F7D80830E94030100
S11302E0FF91EF91BF91AF919F918F917F916F910A
S11302F05F914F913F912F910F900FBE0F901F90E0
S113030018951F920F920FB60F9211242F933F93BB
S11303104F935F936F937F938F939F93AF93BF9309
S1130320EF93FF939091C6009D3069F08091DF01B7
S11303308A3048F4E82FF0E0ED51FD4F90838F5F51
S11303408093DF0105C081E08093E2010E940F01E8
S1130350FF91EF91BF91AF919F918F917F916F9199
S11303605F914F913F912F910F900FBE0F901F906F
S11303701895FB01DC0102C001900D9241505040E0
S10B0380D8F70895F894FFCFAB
S11303884D656E753A0A0D00092A20504C41593AB8
S113039820726570726F64756365206C6120636197
S11303A86E63696F6E2073656C656363696F6E61F4
S11303B864610A0D00092A2053544F503A20646599
S11303C87469656E65206C6120726570726F6475FE
S11303D86363696F6E2064656C20736F6E69646F04
S11303E820656E20637572736F0A0D00092A204E0A
S11303F8554D3A206E756D65726F20646520636192
S11304086E63696F6E20612073656C656363696FE1
S11304186E6172206465206C61206C69737461205C
S11304285B312061204E5D0A0D00092A2052455394
S113043845543A207265696E6963696120656C2068
S113044873697374656D6120616C2065737461648C
S10F04586F20696E696369616C0A0D0015
S9030000FC
