S01600007470332D456E7472656761626C652E73726563D1
S11300000C9434000C9451000C9451000C94510045
S11300100C9451000C9451000C9451000C94510018
S11300200C9451000C9451000C9451000C94510008
S11300300C9451000C9451000C946B010C945100DD
S11300400C9451000C9451000C9437020C94F5015B
S11300500C9451000C9451000C9451000C945100D8
S11300600C9451000C94510011241FBECFEFD8E022
S1130070DEBFCDBF12E0A0E0B1E0E2EEFAE002C0E4
S113008005900D92A23BB107D9F724E0A2EBB2E0B0
S113009001C01D92AC3BB207E1F70E9453000C94DF
S11300A06F050C94000087E60E948F010E945D009A
S11300B00E9441010E945E01FDCF80E091E00E9418
S11300C0B30188E091E00E94B30185E391E00E94CE
S11300D0B3018CE691E00E94B3018AEA91E00E94A8
S11300E0B3010895CF93DF93EC0120E030E004C026
S11300F0941319C02F5F3F4FD901FE01E20FF31F84
S11301009081992331F0FB01E20FF31F40814111EB
S1130110EFCF91110BC0A60FB71F8C91882349F024
S113012080E090E008C080E090E005C080E090E0CE
S113013002C081E090E0DF91CF910895CF93DF93E7
S1130140EC016CED71E00E947200892B21F081E0DA
S11301508093B30225C061EE71E0CE010E9472006B
S1130160892B21F082E08093B3021AC066EE71E01D
S1130170CE010E947200892B21F083E08093B302A8
S11301800FC06BEE71E0CE010E947200892B21F04A
S113019084E08093B30204C081EF91E00E94B30134
S11301A0DF91CF9108950F931F93CF93DF93CDB732
S11301B0DEB7C456D1090FB6F894DEBF0FBECDBF6B
S11301C08091B302823031F118F4813039F04DC09E
S11301D0833041F1843009F441C047C08091B202B8
S11301E01F928F9386E092E09F938F938E010F5F0F
S11301F01F4F1F930F930E948502C8010E94B301F1
S11302008FEF8093B3020F900F900F900F900F9089
S11302100F902BC08CE192E00E94B3018FEF80938A
S1130220B30223C08FE292E00E94B30183E492E020
S11302300E94B3018CE592E00E94B30189E692E04A
S11302400E94B3018FE792E00E94B30182E992E039
S11302500E94B3018FEF8093B30207C082EA92E059
S11302600E94B3018FEF8093B302CC59DF4F0FB6D6
S1130270F894DEBF0FBECDBFDF91CF911F910F91D8
S1130280089588EF87BD82E084BD93E095BD809397
S11302906E00E0E8F0E0808180648083E1E8F0E0D3
S11302A080818960808384B1826084B97894089560
S11302B081E08093B6028093B50208958091B602DE
S11302C0882331F01092B60284EB92E00E94E6019A
S11302D00E94D30008951F920F920FB60F9211241B
S11302E02F933F934F935F936F937F938F939F933A
S11302F0AF93BF93EF93FF930E945801FF91EF9147
S1130300BF91AF919F918F917F916F915F914F9129
S11303103F912F910F900FBE0F901F901895E1EC15
S1130320F0E0108296E09093C2001092C500809392
S1130330C400808188608083808180618083089587
S1130340E1ECF0E080818062808308959091B802AE
S1130350E92FF0E0E454FD4F80839F5F9093B8024F
S11303600E94A0010895EF92FF921F93CF93DF9311
S113037000D0CDB7DEB77C011A82198210E006C026
S1130380BE016F5F7F4F0E94A6011F5FF701E10F5F
S1130390F11D80818111F4CF0F900F90DF91CF91E7
S11303A01F91FF90EF900895E1ECF0E080818F7D44
S11303B080830895E1ECF0E0808180688083089573
S11303C0E1ECF0E080818F77808308950E94DA0168
S11303D08091BB02882341F08CEB93E00E949E0045
S11303E01092B7021092BB0208951F920F920FB69B
S11303F00F9211242F933F934F935F936F937F93A7
S11304008F939F93AF93BF93EF93FF938091B90220
S11304109091B802891306C0E1ECF0E080818F7DF1
S1130420808314C0E82FF0E0E454FD4F90819923B9
S113043031F08F5F8093B9029093C60007C0E1EC5E
S1130440F0E080818F7D80830E94D401FF91EF9141
S1130450BF91AF919F918F917F916F915F914F91D8
S11304603F912F910F900FBE0F901F9018951F92E0
S11304700F920FB60F9211242F933F934F935F93D4
S11304806F937F938F939F93AF93BF93CF93EF9388
S1130490FF93C091C600CD3069F0CA3059F0809105
S11304A0B702E82FF0E0E454FC4FC0838F5F8093E1
S11304B0B70213C0CD3051F48091B702E82FF0E0B9
S11304C0E454FC4F10828F5F8093B702CA3029F442
S11304D081E08093BB020E94E0016091BA0270E067
S11304E08C2F0E94A601FF91EF91CF91BF91AF9104
S11304F09F918F917F916F915F914F913F912F9138
S11305000F900FBE0F901F901895AEE0B0E0EBE88F
S1130510F2E00C9446050D891E8986E08C831A83CB
S113052009838FEF9FE79E838D83AE01475E5F4F04
S11305306F89788DCE0101960E94A702EF81F8851C
S1130540E00FF11F10822E96E4E00C946205ABE0FC
S1130550B0E0EDEAF2E00C9438056C017B018A010D
S1130560FC0117821682838181FFCCC1CE010196E2
S11305703C01F6019381F70193FD859193FF8191ED
S11305807F01882309F4BAC1853239F493FD85913A
S113059093FF81917F01853229F4B60190E00E9496
S11305A09E04E7CF912C212C312CFFE1F315D8F0D8
S11305B08B3279F038F4803279F08332A1F4232D30
S11305C020611DC08D3261F0803369F4232D2160D8
S11305D016C0832D8260382EE32DE4603E2E2AC09F
S11305E0F32DF8601DC037FC2DC020ED280F2A30F4
S11305F040F08E32B9F436FC81C1232D2064322EB2
S113060019C036FE06C08AE0989E200D1124922E51
S113061011C0EAE02E9E200D1124222EF32DF0624B
S11306203F2E08C08C3621F4832D8068382E02C0FA
S1130630883641F4F70193FD859193FF81917F0101
S11306408111B3CF982F9F7D9554933028F40C5F7C
S11306501F4F9FE399830DC0833631F0833771F0C8
S1130660833509F059C021C0F801808189830E5F68
S11306701F4F88248394912C530113C02801F2E066
S11306804F0E511CF801A080B18036FE03C0692DC5
S113069070E002C06FEF7FEFC5010E9493044C012C
S11306A08201F32DFF773F2E16C0280122E0420E6F
S11306B0511CF801A080B18036FE03C0692D70E0A2
S11306C002C06FEF7FEFC5010E9488044C01F32D37
S11306D0F0683F2E820133FC1BC0822D90E0881607
S11306E09906B0F4B60180E290E00E949E042A9438
S11306F0F4CFF50137FC859137FE81915F01B60196
S113070090E00E949E0421102A9421E0821A91080C
S11307108114910471F7E8C0843611F0893641F5EB
S1130720F80137FE07C060817181828193810C5F7B
S11307301F4F08C060817181072E000C880B990B34
S11307400E5F1F4FF32DFF763F2E97FF09C0909544
S11307508095709561957F4F8F4F9F4FF0683F2E26
S11307602AE030E0A3010E94DA04882E861845C0EE
S1130770853731F4232D2F7EB22E2AE030E025C0B8
S1130780932D997FB92E8F36C1F018F4883579F0FE
S1130790B5C0803719F0883721F0B0C0E92FE06187
S11307A0BE2EB4FE0DC0FB2DF460BF2E09C034FE76
S11307B00AC0292F2660B22E06C028E030E005C00A
S11307C020E130E002C020E132E0F801B7FE07C0CA
S11307D060817181828193810C5F1F4F06C06081AB
S11307E0718180E090E00E5F1F4FA3010E94DA0444
S11307F0882E8618FB2DFF773F2E36FE0DC0232D45
S11308002E7FA22E891458F434FE0BC032FC09C08A
S1130810832D8E7EA82E05C0B82CA32C03C0B82C23
S113082001C0B92CA4FE0FC0FE01E80DF11D8081AA
S1130830803321F49A2D997EA92E09C0A2FE06C008
S1130840B394B39404C08A2D867809F0B394A3FCBE
S113085011C0A0FE06C0B21488F4280C922C9B1878
S11308600EC0B21460F4B60180E290E00E949E04CF
S1130870B394F7CFB21418F42B1802C0982C212C7F
S1130880A4FE10C0B60180E390E00E949E04A2FE84
S113089017C0A1FC03C088E790E002C088E590E09F
S11308A0B6010CC08A2D867859F0A1FE02C08BE2F5
S11308B001C080E2A7FC8DE2B60190E00E949E0494
S11308C0891438F4B60180E390E00E949E049A945F
S11308D0F7CF8A94F301E80DF11D8081B60190E011
S11308E00E949E048110F5CF222009F442CEB60165
S11308F080E290E00E949E042A94F6CFF60186815D
S1130900978102C08FEF9FEF2B96E2E10C94540580
S1130910FC010590615070400110D8F780959095C6
S11309208E0F9F1F0895FC016150704001900110CB
S1130930D8F7809590958E0F9F1F08950F931F935E
S1130940CF93DF93FB01238121FD03C08FEF9FEF42
S11309502CC022FF16C0468157812481358142175D
S1130960530744F4A081B1819D012F5F3F4F318330
S113097020838C93268137812F5F3F4F37832683D3
S113098014C08B01EC01FB010084F185E02D099575
S1130990892BE1F6D80116968D919C9117970196B3
S11309A017969C938E931697CE01DF91CF911F914A
S11309B00F910895FA01AA27283051F1203181F1CD
S11309C0E8946F936E7F6E5F7F4F8F4F9F4FAF4F53
S11309D0B1E03ED0B4E03CD0670F781F891F9A1F66
S11309E0A11D680F791F8A1F911DA11D6A0F711D1A
S11309F0811D911DA11D20D009F468943F912AE026
S1130A00269F11243019305D3193DEF6CF0108950D
S1130A10462F4770405D4193B3E00FD0C9F7F6CF3E
S1130A20462F4F70405D4A3318F0495D31FD405206
S1130A30419302D0A9F7EACFB4E0A695979587959C
S1130A4077956795BA95C9F700976105710508957B
S1130A509B01AC010A2E0694579547953795279527
S1130A60BA95C9F7620F731F841F951FA01D0895BF
S1130A702F923F924F925F926F927F928F929F92AA
S1130A80AF92BF92CF92DF92EF92FF920F931F9398
S1130A90CF93DF93CDB7DEB7CA1BDB0B0FB6F89449
S1130AA0DEBF0FBECDBF09942A88398848885F8489
S1130AB06E847D848C849B84AA84B984C884DF80FA
S1130AC0EE80FD800C811B81AA81B981CE0FD11DDE
S1130AD00FB6F894DEBF0FBECDBFED010895F894B4
S1050AE0FFCF42
S1130AE24D656E753A0A0D00092A20504C41593A57
S1130AF220726570726F64756365206C6120636136
S1130B026E63696F6E2073656C656363696F6E6192
S1130B1264610A0D00092A2053544F503A20646537
S1130B227469656E65206C6120726570726F64759C
S1130B326363696F6E2064656C20736F6E69646FA2
S1130B4220656E20637572736F0A0D00092A204EA8
S1130B52554D3A206E756D65726F20646520636130
S1130B626E63696F6E20612073656C656363696F80
S1130B726E6172206465206C61206C6973746120FB
S1130B825B312061204E5D0A0D00092A2052455333
S1130B9245543A207265696E6963696120656C2007
S1130BA273697374656D6120616C2065737461642B
S1130BB26F20696E696369616C0A0D00504C41597A
S1130BC20053544F50004E554D2000524553455446
S1130BD200436F6D616E646F206E6F2076616C6985
S1130BE2646F2E0D0A000A09526570726F64756390
S1130BF269656E646F202564200D0A0043616E638B
S1130C02696F6E20646574656E6964610D0A00091A
S1130C12312E205468652053696D70736F6E732092
S1130C220D0A0009322E204D697373696F6E2049D3
S1130C326D706F737369626C650D0A0009332E203F
S1130C424261746D616E0D0A0009342E204C6120DC
S1130C5270616E7465726120726F73610D0A0009AE
S1130C62352E204164616D732046616D696C790D86
S1130C720A0009362E20417267656E74696E610D31
S1130C820A0045737461646F2052455345540D0A3A
S1050C9200005C
S9030000FC
