S01600007470332D456E7472656761626C652E73726563D1
S11300000C9444000C9461000C9461000C94610005
S11300100C9461000C9461000C9461000C946100D8
S11300200C9461000C9461000C9461000C946100C8
S11300300C9461000C9461000C9449040C946100CC
S11300400C9461000C9461000C9415050C94D30479
S11300500C9461000C9461000C9461000C94610098
S11300600C9461000C9461006C03700359035C03ED
S113007060036403680377037703770377037703E5
S1130080770377037703740311241FBECFEFD8E0FF
S1130090DEBFCDBF16E0A0E0B1E0E8E7F1E102C0C9
S11300A005900D92A03CB107D9F728E0A0ECB6E08A
S11300B001C01D92A73DB207E1F70E946E000C94A7
S11300C0BA080C94000098E088E10FB6F894A8955B
S11300D0809360000FBE90936000089587E60E94AD
S11300E06D040E9483000E941F042FEF81EE94E0B0
S11300F0215080409040E1F700C000000E94A00021
S11301000E943C04FDCF8DE091E00E9491048AE1BD
S113011091E00E9491048DE291E00E94910485E4B3
S113012091E00E94910481E591E00E94910486E6A9
S113013091E00E94910488E791E00E94910408955F
S113014087E891E00E9491048EE891E00E94910476
S11301508AEB91E00E94910480EF91E00E94910467
S11301608DE292E00E9491040895FC01442339F049
S113017020E030E01FC0951329C04F5F01C040E06C
S1130180242F30E0DF01A20FB31F9C91992331F09B
S1130190DB01A20FB31F5C915111EDCF911119C076
S11301A0FB01E20FF31F80818823B1F080E0089502
S11301B02F5F3F4FDF01A20FB31F8C918111F8CF46
S11301C0CF010E94AA058093C006089580E090E0C4
S11301D0089580E090E0089581E090E00895CF9341
S11301E0DF93EC0140E06EE572E00E94B500892BDC
S11301F021F081E08093C10630C040E063E672E004
S1130200CE010E94B500892B21F082E08093C106C3
S113021024C040E068E672E0CE010E94B500892B5C
S113022021F084E08093C10618C041E06EE672E0DC
S1130230CE010E94B500892B51F08091C00688231D
S113024031F0873020F483E08093C10606C083E751
S113025092E00E9491041092C006DF91CF9108951C
S11302600F931F93CF93DF93CDB7DEB7C456D10955
S11302700FB6F894DEBF0FBECDBF8091C1068230A9
S113028041F118F4813039F058C0833061F1843081
S113029009F44AC052C08091C0061F928F9388E827
S11302A092E09F938F938E010F5F1F4F1F930F93C5
S11302B00E94D005C8010E9491040E94D8018FEFCA
S11302C08093C1060F900F900F900F900F900F9096
S11302D034C00E94A90180EA92E00E9491048FEF49
S11302E08093C1062AC08091C0061F928F9382EB2F
S11302F092E09F938F938E010F5F1F4F1F930F9375
S11303000E94D005C8010E9491048091C0068150CA
S11303100E94CB018FEF8093C1060F900F900F9036
S11303200F900F900F9009C08CEC92E00E94910402
S11303308FEF8093C1060E946300CC59DF4F0FB644
S1130340F894DEBF0FBECDBFDF91CF911F910F9107
S1130350089581E080930C0108959C019091C30657
S11303609111FCCF6093D106E0E8F0E080818064D5
S1130370808340E050E060E072E18AE790E00E9410
S1130380630521503109309389002093880081E06E
S11303908093C3060895A091CD06B091CE06E82FB0
S11303A0F0E0EE0FFF1FE050FF4F80818C93089523
S11303B084E08093D0068FE38093CB0686E080931D
S11303C0D60605C03196F093CE06E093CD06E091B3
S11303D0CD06F091CE0680818A33A1F73196F09351
S11303E0CE06E093CD060CC1843609F050C01092BD
S11303F0D0063196F093CE06E093CD0605C0319633
S1130400F093CE06E093CD06E091CD06F091CE06B2
S113041080818D33A1F305C03196F093CE06E0932D
S1130420CD06E091CD06F091CE0680818032A1F315
S113043080538A3010F48093D0069F012F5F3F4F82
S11304403093CE062093CD06818190ED980F9A309B
S1130450B8F49091D006990F492F440F440F940F8C
S1130460890F80538093D0062F5F3F4F3093CE0681
S11304702093CD0605C03196F093CE06E093CD06C9
S1130480E091CD06F091CE0680818C32A1F3E0910B
S1130490CD06F091CE0680818F36C1F51092D60636
S11304A03196F093CE06E093CD0605C03196F093D5
S11304B0CE06E093CD06E091CD06F091CE06808184
S11304C08D33A1F305C03196F093CE06E093CD06AB
S11304D0E091CD06F091CE0680818032A1F3805365
S11304E08A3010F48093D6063196F093CE06E093CA
S11304F0CD0605C03196F093CE06E093CD06E0918B
S1130500CD06F091CE0680818C32A1F3E091CD0628
S1130510F091CE068081823609F06BC01092CB0632
S11305203196F093CE06E093CD0605C03196F09354
S1130530CE06E093CD06E091CD06F091CE06808103
S11305408D33A1F305C03196F093CE06E093CD062A
S1130550E091CD06F091CE0680818032A1F38053E4
S11305608A3010F48093CB06DF011196B093CE0647
S1130570A093CD06818190ED980F9A3068F5909103
S1130580CB06990F292F220F220F920F890F805328
S11305908093CB069D012F5F3F4F3093CE0620936F
S11305A0CD0611969C9140ED490F4A30A8F4880F6E
S11305B0482F440F440F840F980F90539093CB0609
S11305C02F5F3F4F3093CE062093CD0605C0319662
S11305D0F093CE06E093CD06E091CD06F091CE06E1
S11305E080818C32A1F305C03196F093CE06E0935E
S11305F0CD06E091CD06F091CE0680818C32A1F338
S1130600E091CD06F091CE0680818A3309F0ECCEDC
S11306103196F093CE06E093CD0681E08093C20636
S113062008950F93CF93DF938091C206882309F432
S113063002C18091D6068093D3068091D006809320
S1130640D2061092CF06E091CD06F091CE068081BD
S113065080538A30E8F48093D2069F012F5F3F4F86
S11306603093CE062093CD06918140ED490F4A3058
S113067078F4880F482F440F440F840F980F905339
S11306809093D2062F5F3F4F3093CE062093CD0632
S1130690C091CD06D091CE06E8818E2F90E0FC016A
S11306A0E156F109E031F10510F5EC5CFF4F0C94D3
S11306B082051092CC061BC082E08093CC0617C042
S11306C084E08093CC0613C085E08093CC060FC0F1
S11306D087E08093CC060BC089E08093CC0607C0EA
S11306E08BE08093CC0603C08FEF8093CC06CE01C1
S11306F001969093CE068093CD062981233251F43E
S11307002091CC062F5F2093CC0601969093CE06C1
S11307108093CD06E091CD06F091CE0680818E3295
S113072041F481E08093CF063196F093CE06E093B6
S1130730CD06E091CD06F091CE06808180538A30BB
S113074038F48093D3063196F093CE06E093CD0629
S1130750E091CD06F091CE0680818E3271F481E075
S11307608093CF063196F093CE06E093CD0605C074
S11307703196F093CE06E093CD06E091CD06F0914C
S1130780CE0680818C32A1F32091CB0630E040E08C
S113079050E060E67AEE80E090E00E946305CA01D2
S11307A0B9010091D206202F30E040E050E00E94D1
S11307B06305220F331F220F331F3093D506209376
S11307C0D4068091CF06882359F0C901880F991F58
S11307D0280F391F369527953093D5062093D406D4
S11307E02091CC062F3FE1F08091D30690E004974E
S11307F06091D4067091D506FC01EE0FFF1FE80F3F
S1130800F91FEE0FFF1FEE0FFF1FE20FF11DEE0F9A
S1130810FF1FE452FD4F808191810E94AD0107C00A
S11308208091D4068093D10681E08093C3068091A1
S1130830C3068111FCCFDF91CF910F91089588EF0A
S113084087BD82E084BD93E095BD80936E00E0E8AF
S1130850F0E0808180648083E1E8F0E08081896059
S1130860808384B1826084B97894089581E0809310
S1130870C5060E94110308958091C506882331F0AE
S11308801092C50684EC96E00E94C4040E943001D4
S113089008951F920F920FB60F9211242F933F9336
S11308A04F935F936F937F938F939F93AF93BF9374
S11308B0EF93FF930E943604FF91EF91BF91AF91A4
S11308C09F918F917F916F915F914F913F912F9164
S11308D00F900FBE0F901F901895E1ECF0E010827E
S11308E096E09093C2001092C5008093C40080816A
S11308F0886080838081806180830895E1ECF0E0EA
S113090080818062808308959091C706E92FF0E08A
S1130910E952F94F80839F5F9093C7060E947E043B
S11309200895EF92FF921F93CF93DF9300D0CDB73A
S1130930DEB77C011A82198210E006C0BE016F5F27
S11309407F4F0E9484041F5FF701E10FF11D808136
S11309508111F4CF0F900F90DF91CF911F91FF90F1
S1130960EF900895E1ECF0E080818F7D808308951D
S1130970E1ECF0E08081806880830895E1ECF0E0B0
S113098080818F77808308950E94B8048091CA067D
S1130990882341F087ED97E00E94EF001092C6068D
S11309A01092CA0608951F920F920FB60F92112447
S11309B02F933F934F935F936F937F938F939F9363
S11309C0AF93BF93EF93FF938091C8069091C706AE
S11309D0891306C0E1ECF0E080818F7D808314C030
S11309E0E82FF0E0E952F94F9081992331F08F5FBD
S11309F08093C8069093C60007C0E1ECF0E08081C4
S1130A008F7D80830E94B204FF91EF91BF91AF91DB
S1130A109F918F917F916F915F914F913F912F9112
S1130A200F900FBE0F901F9018951F920F920FB644
S1130A300F9211242F933F934F935F936F937F9360
S1130A408F939F93AF93BF93CF93EF93FF93C091F3
S1130A50C600CD3069F0CA3059F08091C606E82F3F
S1130A60F0E0E952F84FC0838F5F8093C60613C04D
S1130A70CD3051F48091C606E82FF0E0E952F84FEA
S1130A8010828F5F8093C606CA3029F481E0809378
S1130A90CA060E94BE046091C90670E08C2F0E94B1
S1130AA08404FF91EF91CF91BF91AF919F918F916A
S1130AB07F916F915F914F913F912F910F900FBE56
S1130AC00F901F901895052E97FB1EF400940E941A
S1130AD07A0557FD07D00E94880507FC03D04EF421
S1130AE00C947A0550954095309521953F4F4F4F82
S1130AF05F4F089590958095709561957F4F8F4FC6
S1130B009F4F0895EE0FFF1F0590F491E02D099477
S1130B10A1E21A2EAA1BBB1BFD010DC0AA1FBB1FFD
S1130B20EE1FFF1FA217B307E407F50720F0A21B6F
S1130B30B30BE40BF50B661F771F881F991F1A94DC
S1130B4069F760957095809590959B01AC01BD0106
S1130B50CF010895FC0188279927E8942191203238
S1130B60E9F3293010F02E30C8F32B3241F02D3246
S1130B7039F4689404C00E94C805820F911D219124
S1130B8020532A30C0F31EF4909581959F4F089509
S1130B907AE0979F902D879F802D910D11240895C1
S1130BA0AEE0B0E0E6EDF5E00C9491080D891E8905
S1130BB086E08C831A8309838FEF9FE79E838D835E
S1130BC0AE01475E5F4F6F89788DCE0101960E941A
S1130BD0F205EF81F885E00FF11F10822E96E4E014
S1130BE00C94AD08ABE0B0E0E8EFF5E00C948308BA
S1130BF06C017B018A01FC0117821682838181FFCB
S1130C00CCC1CE0101963C01F6019381F70193FD1D
S1130C10859193FF81917F01882309F4BAC18532BC
S1130C2039F493FD859193FF81917F01853229F4F5
S1130C30B60190E00E94E907E7CF912C212C312CDA
S1130C40FFE1F315D8F08B3279F038F4803279F083
S1130C508332A1F4232D20611DC08D3261F08033D5
S1130C6069F4232D216016C0832D8260382EE32D74
S1130C70E4603E2E2AC0F32DF8601DC037FC2DC061
S1130C8020ED280F2A3040F08E32B9F436FC81C1B1
S1130C90232D2064322E19C036FE06C08AE0989EA9
S1130CA0200D1124922E11C0EAE02E9E200D112455
S1130CB0222EF32DF0623F2E08C08C3621F4832DB2
S1130CC08068382E02C0883641F4F70193FD85917F
S1130CD093FF81917F018111B3CF982F9F7D95540C
S1130CE0933028F40C5F1F4F9FE399830DC0833624
S1130CF031F0833771F0833509F059C021C0F80110
S1130D00808189830E5F1F4F88248394912C530123
S1130D1013C02801F2E04F0E511CF801A080B180ED
S1130D2036FE03C0692D70E002C06FEF7FEFC5018E
S1130D300E94DE074C018201F32DFF773F2E16C07F
S1130D40280122E0420E511CF801A080B18036FE39
S1130D5003C0692D70E002C06FEF7FEFC5010E94F0
S1130D60D3074C01F32DF0683F2E820133FC1BC0E6
S1130D70822D90E088169906B0F4B60180E290E0E6
S1130D800E94E9072A94F4CFF50137FC859137FED8
S1130D9081915F01B60190E00E94E90721102A9435
S1130DA021E0821A91088114910471F7E8C0843615
S1130DB011F0893641F5F80137FE07C06081718171
S1130DC0828193810C5F1F4F08C060817181072E5F
S1130DD0000C880B990B0E5F1F4FF32DFF763F2EEF
S1130DE097FF09C090958095709561957F4F8F4FBF
S1130DF09F4FF0683F2E2AE030E0A3010E942508AF
S1130E00882E861845C0853731F4232D2F7EB22EC7
S1130E102AE030E025C0932D997FB92E8F36C1F09A
S1130E2018F4883579F0B5C0803719F0883721F087
S1130E30B0C0E92FE061BE2EB4FE0DC0FB2DF460FE
S1130E40BF2E09C034FE0AC0292F2660B22E06C068
S1130E5028E030E005C020E130E002C020E132E0CB
S1130E60F801B7FE07C060817181828193810C5FB4
S1130E701F4F06C06081718180E090E00E5F1F4FBC
S1130E80A3010E942508882E8618FB2DFF773F2E8C
S1130E9036FE0DC0232D2E7FA22E891458F434FE65
S1130EA00BC032FC09C0832D8E7EA82E05C0B82C41
S1130EB0A32C03C0B82C01C0B92CA4FE0FC0FE01A2
S1130EC0E80DF11D8081803321F49A2D997EA92E9D
S1130ED009C0A2FE06C0B394B39404C08A2D8678D8
S1130EE009F0B394A3FC11C0A0FE06C0B21488F4A8
S1130EF0280C922C9B180EC0B21460F4B60180E248
S1130F0090E00E94E907B394F7CFB21418F42B18B9
S1130F1002C0982C212CA4FE10C0B60180E390E0FE
S1130F200E94E907A2FE17C0A1FC03C088E790E075
S1130F3002C088E590E0B6010CC08A2D867859F08D
S1130F40A1FE02C08BE201C080E2A7FC8DE2B601E3
S1130F5090E00E94E907891438F4B60180E390E038
S1130F600E94E9079A94F7CF8A94F301E80DF11DE2
S1130F708081B60190E00E94E9078110F5CF22201C
S1130F8009F442CEB60180E290E00E94E9072A9477
S1130F90F6CFF6018681978102C08FEF9FEF2B96E3
S1130FA0E2E10C949F08FC0105906150704001102F
S1130FB0D8F7809590958E0F9F1F0895FC0161507E
S1130FC0704001900110D8F7809590958E0F9F1F67
S1130FD008950F931F93CF93DF93FB01238121FD8A
S1130FE003C08FEF9FEF2CC022FF16C046815781AC
S1130FF0248135814217530744F4A081B1819D01B6
S11310002F5F3F4F318320838C93268137812F5F5D
S11310103F4F3783268314C08B01EC01FB0100840E
S1131020F185E02D0995892BE1F6D80116968D916D
S11310309C911797019617969C938E931697CE01C1
S1131040DF91CF911F910F910895FA01AA272830BB
S113105051F1203181F1E8946F936E7F6E5F7F4F81
S11310608F4F9F4FAF4FB1E03ED0B4E03CD0670FFD
S1131070781F891F9A1FA11D680F791F8A1F911D50
S1131080A11D6A0F711D811D911DA11D20D009F4A0
S113109068943F912AE0269F11243019305D3193E2
S11310A0DEF6CF010895462F4770405D4193B3E0CB
S11310B00FD0C9F7F6CF462F4F70405D4A3318F072
S11310C0495D31FD4052419302D0A9F7EACFB4E023
S11310D0A6959795879577956795BA95C9F70097DB
S11310E06105710508959B01AC010A2E069457957C
S11310F0479537952795BA95C9F7620F731F841FD3
S1131100951FA01D08952F923F924F925F926F9268
S11311107F928F929F92AF92BF92CF92DF92EF9283
S1131120FF920F931F93CF93DF93CDB7DEB7CA1B04
S1131130DB0B0FB6F894DEBF0FBECDBF09942A882F
S1131140398848885F846E847D848C849B84AA84D7
S1131150B984C884DF80EE80FD800C811B81AA8164
S1131160B981CE0FD11D0FB6F894DEBF0FBECDBF2F
S10B1170ED010895F894FFCF8E
S11311783C03A9037C040005680515060143616E58
S113118863696F6E65733A200D0009312E20546827
S1131198652053696D70736F6E73200D0009322ECC
S11311A8204D697373696F6E20496D706F7373692D
S11311B8626C650D0009332E204261746D616E0DF9
S11311C80009342E204C612070616E7465726120B0
S11311D8726F73610D0009352E204164616D7320AF
S11311E846616D696C790D0009362E204172676578
S11311F86E74696E610D004D656E753A0D00092AAD
S113120820504C41593A20726570726F6475636559
S1131218206C612063616E63696F6E2073656C6511
S11312286363696F6E6164610D00092A2053544F2A
S1131238503A2064657469656E65206C6120726536
S113124870726F64756363696F6E2064656C207374
S11312586F6E69646F20656E20637572736F0D001D
S1131268092A204E554D3A206E756D65726F2064BB
S1131278652063616E63696F6E20612073656C65B8
S11312886363696F6E6172206465206C61206C69A8
S1131298737461205B312061204E5D0D00092A20A2
S11312A852455345543A207265696E6963696120F1
S11312B8656C2073697374656D6120616C20657356
S11312C87461646F20696E696369616C0D00504CC8
S11312D841590053544F50005245534554004E55FC
S11312E84D2000436F6D616E646F206E6F207661D0
S11312F86C69646F2E0D0A0009526570726F64750B
S11313086369656E646F092D2D3E202564200D00E8
S113131843616E63696F6E20646574656E696461A8
S11313280D000943616E63696F6E20656C656769BA
S11313386461092D2D3E202564200D0052657365D6
S11313487465616E646F202E2E2E0D000601150142
S1131358260137014A015D01720188019F01B80124
S1131368D201EE010B022A024B026E029302BA0268
S1131378E40210033E037003A403DC0317045504BA
S11313889704DC0427057505C80520067C06E006D5
S11313984907B8072D08AA082D09B9094D0AEA0A08
S11313A8900B400CF80CC00D900E6F0F54686553E9
S11313B8696D70736F6E733A643D342C6F3D352CD0
S11313C8623D3136303A632E362C65362C66233628
S11313D82C3861362C672E362C65362C63362C381F
S11313E8612C3866232C3866232C3866232C326704
S11313F82C38702C38702C3866232C3866232C38FB
S113140866232C38672C61232E2C3863362C3863DA
S1131418362C3863362C6336004D697373696F6EE6
S1131428496D703A643D342C6F3D362C623D31353C
S1131438303A313664352C31366423352C313664F0
S1131448352C31366423352C313664352C313664E9
S113145823352C313664352C313664352C313664D9
S113146823352C313665352C313666352C313666C4
S113147823352C313667352C3867352C34702C38A5
S113148867352C34702C386123352C38702C38632C
S1131498362C38702C3867352C34702C3867352C3A
S11314A834702C3866352C38702C38702C386735E5
S11314B82C34702C34702C386123352C38702C382B
S11314C863362C38702C3867352C34702C34702CD7
S11314D83866352C38702C386623352C38702C38FF
S11314E86123352C3867352C316435004261746DBD
S11314F8616E3A643D382C6F3D352C623D3136308F
S11315083A3136612C313667232C3136672C313623
S113151866232C3136662C313666232C3136672CFB
S1131528313667232C34612E2C702C642C642C6384
S1131538232C63232C632C632C63232C63232C64B8
S11315482C642C63232C63232C632C632C63232C9F
S113155863232C642C642C63232C63232C632C6357
S11315682C63232C63232C67362C702C34673600A9
S113157850696E6B70616E746865723A643D313699
S11315882C6F3D352C623D3136303A3864232C3883
S1131598652C32702C3866232C38672C32702C3822
S11315A864232C38652C702C3866232C38672C70EF
S11315B82C3863362C38622C702C3864232C38650C
S11315C82C702C38622C3261232C32702C612C67DD
S11315D82C652C642C3265004164616D7366616D01
S11315E8696C793A643D342C6F3D352C623D313653
S11315F8303A38632C662C38612C662C38632C629C
S1131608342C32672C38662C652C38672C652C38BA
S113161865342C61342C32662C38632C662C386182
S11316282C662C38632C62342C32672C38662C6573
S11316382C38632C642C38652C31662C38632C3890
S1131648642C38652C38662C31702C38642C386539
S11316582C3866232C38672C31702C38642C386568
S11316682C3866232C38672C702C38642C38652C5D
S11316783866232C38672C702C38632C38642C3843
S1131688652C386600417267656E74696E613A64E8
S11316983D342C6F3D352C623D37303A38652E3455
S11316A82C3865342C3865342C38652E342C38663F
S11316B8342C3867342C3861342C67342C38702C2B
S11316C83867342C3861342C3861342C3867342C1E
S11316D8632C67342C3866342C652E342C38702CE3
S11316E83865342C3866342C3867342C3864342CF8
S11316F864342C3864342C3865342C3866342C63C0
S1131708342C3136702C3863342C3864342C3863D8
S1131718342C3865342C67342C3136702C386734C3
S11317282C3867342C3861342C632C313670000023
S9030000FC
