S01600007470332D456E7472656761626C652E73726563D1
S11300000C94A7000C94C4000C94C4000C94C40079
S11300100C94C4000C94C4000C94C4000C94C4004C
S11300200C94C4000C94C4000C94C4000C94C4003C
S11300300C94C4000C94C4000C941D040C94C400CF
S11300400C94C4000C94C4000C94EB040C94A90408
S11300500C94C4000C94C4000C94C4000C94C4000C
S11300600C94C4000C94C4006F03710373036703FE
S113007069036B036D03092A2052455345543A2002
S11300807265696E6963696120656C207369737454
S1130090656D6120616C2065737461646F20696EA5
S11300A0696369616C0D00092A204E554D3A206E32
S11300B0756D65726F2064652063616E63696F6E30
S11300C020612073656C656363696F6E617220647F
S11300D065206C61206C69737461205B3120612040
S11300E04E5D0D00092A2053544F503A2064657424
S11300F069656E65206C6120726570726F647563EA
S113010063696F6E2064656C20736F6E69646F2021
S1130110656E20637572736F0D00092A20504C417F
S1130120593A20726570726F64756365206C612042
S113013063616E63696F6E2073656C656363696F79
S11301406E6164610D004D656E753A0D00001124F9
S11301501FBECFEFD8E0DEBFCDBF16E0A0E0B1E018
S1130160ECE3F1E102C005900D92A031B107D9F79B
S113017028E0A0E1B6E001C01D92A232B207E1F787
S11301800E94D1000C949C080C94000098E088E133
S11301900FB6F894A895809360000FBE909360000A
S11301A0089587E60E9443040E94E6000E94F50336
S11301B02FEF81EE94E0215080409040E1F700C0A1
S11301C000000E941B010E941004FDCF8AE091E010
S11301D00E94670487E191E00E9467048AE291E04B
S11301E00E94670482E491E00E9467048EE491E037
S11301F00E94670483E691E00E94670485E791E02A
S11302000E94670408950F931F93CF93DF938C018B
S1130210D62FC0E009C0F801EC0FF11D849160E015
S113022070E00E945A04CF5FCD17A8F3DF91CF91FD
S11302301F910F91089568E086E491E00E94030104
S11302406CE28AE191E00E94030166E384EE90E0AF
S11302500E9403016DE387EA90E00E94030161E3D9
S113026086E790E00E9403010895FC01442339F0DD
S113027020E030E023C095132DC04F5F01C040E063
S1130280242F30E0DF01A20FB31F9C91992331F09A
S1130290DB01A20FB31F5C915111EDCF911108C086
S11302A0FB01E20FF31F8081882321F080E0089591
S11302B080E0089581E008952F5F3F4FDF01A20F92
S11302C0B31F8C918111F8CFCF010E948C058093CC
S11302D01006089580E00895CF93DF93EC0140E089
S11302E064E871E00E943501882321F081E0809365
S11302F0110630C040E069E871E0CE010E9435018A
S1130300882321F082E08093110624C040E06EE847
S113031071E0CE010E943501882321F084E08093AE
S1130320110618C041E064E971E0CE010E94350174
S1130330882351F080911006882331F0873020F40F
S113034083E08093110606C089E991E00E94670466
S113035010921006DF91CF9108950F931F93CF93BE
S1130360DF93CDB7DEB76E970FB6F894DEBF0FBE3E
S1130370CDBF80911106823099F118F4813039F0A3
S11303805FC08330C1F1843009F451C059C08091F9
S113039010069FEF980F9630D8F41F928F938EEA31
S11303A091E09F938F938E010F5F1F4F1F930F93C5
S11303B00E94B205C8010E946704809110060E9441
S11303C066020F900F900F900F900F900F9004C043
S11303D086EC91E00E9467048FEF8093110630C091
S11303E087EF91E00E94670480E00E942B028FEF68
S11303F08093110625C0809110061F928F9389E087
S113040092E09F938F938E010F5F1F4F1F930F9363
S11304100E94B205C8010E9467048FEF8093110601
S11304200F900F900F900F900F900F9009C083E2E0
S113043092E00E9467048FEF809311060E94C60029
S11304406E960FB6F894DEBF0FBECDBFDF91CF918D
S11304501F910F91089580931206089540911306F9
S113046050911406452BD1F77093200660931F0614
S1130470E0E8F0E02081206420839C0140E050E02B
S113048060E072E18AE790E00E944505215031095D
S1130490309389002093880081E090E090931406C3
S11304A080931306089580911F069091200600976B
S11304B031F001979093200680931F0608951092BF
S11304C08000109214061092130608958F929F9242
S11304D0AF92BF92EF92FF920F931F93CF93DF934C
S11304E0E82FF0E0EE0FFF1FE050FF4F0190F08186
S11304F0E02D84E080931E068FE390E090931D0628
S113050080931C0686E08093210601C03196808189
S11305108A33E1F73196AAC0843661F510921E063B
S1130520DF01119601C011968C918D33E1F301C066
S113053011968C918032E1F380538A3010F48093C9
S11305401E06FD01319611968C9190ED980F9A300C
S113055070F490911E06990F292F220F220F920FEB
S1130560890F805380931E06319601C03196808195
S11305708C32E1F380818F36C1F4109221063196DA
S113058001C0319680818D33E1F301C031968081C1
S11305908032E1F380538A3010F48093210631963F
S11305A001C0319680818C32E1F38081823609F07A
S11305B05AC010921D0610921C06DF01119601C04C
S11305C011968C918D33E1F301C011968C91803298
S11305D0E1F390ED980F9A3030F490E0C097909347
S11305E01D0680931C06FD01319611964C911197BE
S11305F080ED840F8A3090F520911C0630911D0601
S1130600C901880F991F220F331F220F331F220F96
S1130610331F820F931F840F911DC09790931D0663
S113062080931C06319612962C9130ED320F3A309D
S1130630A8F4AC01440F551F880F991F880F991F08
S1130640880F991F840F951F820F911DC097909357
S11306501D0680931C06319601C0319680818C3230
S1130660E1F301C0319680818C32E1F380818A33D9
S113067009F052CFEF012196A5C0F0902106009118
S11306801E0680538A30A0F4AE014F5F5F4F9981FC
S113069020ED290F2A3050F4880F082F000F000F87
S11306A0800F082F090F0053229602C0082FEA0179
S11306B0E8818E2F90E0FC01E156F109E730F10565
S11306C020F4EC5CFF4F0C9464051FEF0DC012E0A6
S11306D00BC014E009C015E007C017E005C019E01D
S11306E003C01BE001C010E0FE0131968981833212
S11306F011F41F5F319680818E3221F43196EE24FD
S1130700E39401C0E12C808180538A3010F4319647
S1130710F82E80818E3219F43196EE24E394EF01A1
S113072001C0219688818C32E1F320911C0630911E
S11307301D0640E050E060E67AEE80E090E00E9422
S11307404505802E912CA12CB12CCA01B901A5011B
S113075094010E944505220F331F220F331FEE2000
S113076039F0B901660F771F260F371F3695279585
S11307701F3FC1F08F2D90E00497FC01EE0FFF1F87
S1130780E80FF91FEE0FFF1FEE0FFF1FE10FF11D22
S1130790EE0FFF1FED5CFD4FB901808191810E9436
S11307A02E020AC03093200620931F0681E090E0B9
S11307B09093140680931306809113069091140667
S11307C0892BD1F78881882329F0909112069923E7
S11307D009F453CFDF91CF911F910F91FF90EF90C8
S11307E0BF90AF909F908F90089588EF87BD82E06F
S11307F084BD93E095BD80936E00E0E8F0E08081D5
S113080080648083E1E8F0E080818960808384B142
S1130810826084B97894089581E0809316060895DF
S113082080911606882331F01092160685E196E031
S11308300E949A040E94AD0108951F920F920FB670
S11308400F9211242F933F934F935F936F937F9352
S11308508F939F93AF93BF93EF93FF930E940C04E6
S11308600E945302FF91EF91BF91AF919F918F919D
S11308707F916F915F914F913F912F910F900FBE98
S11308800F901F901895E1ECF0E0108296E09093A1
S1130890C2001092C5008093C40080818860808368
S11308A08081806180830895E1ECF0E08081806242
S11308B08083089590911806E92FF0E0EE5DF94FDA
S11308C080839F5F909318060E9454040895EF92CA
S11308D0FF921F93CF93DF9300D0CDB7DEB77C0197
S11308E01A82198210E006C0BE016F5F7F4F0E941A
S11308F05A041F5FF701E10FF11D80818111F4CFCC
S11309000F900F90DF91CF911F91FF90EF9008957A
S1130910E1ECF0E080818F7D80830895E1ECF0E0EC
S11309208081806880830895E1ECF0E080818F7796
S1130930808308950E948E0480911B06882341F0D1
S113094082E297E00E946C011092170610921B0637
S113095008951F920F920FB60F9211242F933F9375
S11309604F935F936F937F938F939F93AF93BF93B3
S1130970EF93FF938091190690911806891306C08E
S1130980E1ECF0E080818F7D808314C0E82FF0E0FB
S1130990EE5DF94F9081992331F08F5F80931906B2
S11309A09093C60007C0E1ECF0E080818F7D8083E6
S11309B00E948804FF91EF91BF91AF919F918F9115
S11309C07F916F915F914F913F912F910F900FBE47
S11309D00F901F9018951F920F920FB60F9211242B
S11309E02F933F934F935F936F937F938F939F9333
S11309F0AF93BF93CF93EF93FF93C091C600CD30D5
S1130A0069F0CA3059F080911706E82FF0E0EE5DE6
S1130A10F84FC0838F5F809317061FC0CD3051F409
S1130A2080911706E82FF0E0EE5DF84F10828F5F9B
S1130A3080931706CA3089F481E080931B0640E056
S1130A4069E871E082E297E00E943501882319F099
S1130A5081E00E942B020E94940460911A0670E0C7
S1130A608C2F0E945A04FF91EF91CF91BF91AF91C7
S1130A709F918F917F916F915F914F913F912F91B2
S1130A800F900FBE0F901F901895052E97FB1EF424
S1130A9000940E945C0557FD07D00E946A0507FC7C
S1130AA003D04EF40C945C055095409530952195F7
S1130AB03F4F4F4F5F4F0895909580957095619586
S1130AC07F4F8F4F9F4F0895EE0FFF1F0590F491B6
S1130AD0E02D0994A1E21A2EAA1BBB1BFD010DC037
S1130AE0AA1FBB1FEE1FFF1FA217B307E407F507DA
S1130AF020F0A21BB30BE40BF50B661F771F881FB6
S1130B00991F1A9469F760957095809590959B014B
S1130B10AC01BD01CF010895FC0188279927E89411
S1130B2021912032E9F3293010F02E30C8F32B3212
S1130B3041F02D3239F4689404C00E94AA05820F52
S1130B40911D219120532A30C0F31EF49095819574
S1130B509F4F08957AE0979F902D879F802D910D48
S1130B6011240895AEE0B0E0E8EBF5E00C947308CE
S1130B700D891E8986E08C831A8309838FEF9FE792
S1130B809E838D83AE01475E5F4F6F89788DCE0162
S1130B9001960E94D405EF81F885E00FF11F1082C1
S1130BA02E96E4E00C948F08ABE0B0E0EAEDF5E0BB
S1130BB00C9465086C017B018A01FC011782168282
S1130BC0838181FFCCC1CE0101963C01F601938162
S1130BD0F70193FD859193FF81917F01882309F4A7
S1130BE0BAC1853239F493FD859193FF81917F01D8
S1130BF0853229F4B60190E00E94CB07E7CF912C0F
S1130C00212C312CFFE1F315D8F08B3279F038F434
S1130C10803279F08332A1F4232D20611DC08D32FE
S1130C2061F0803369F4232D216016C0832D826026
S1130C30382EE32DE4603E2E2AC0F32DF8601DC04B
S1130C4037FC2DC020ED280F2A3040F08E32B9F445
S1130C5036FC81C1232D2064322E19C036FE06C015
S1130C608AE0989E200D1124922E11C0EAE02E9E57
S1130C70200D1124222EF32DF0623F2E08C08C3655
S1130C8021F4832D8068382E02C0883641F4F701A0
S1130C9093FD859193FF81917F018111B3CF982FAB
S1130CA09F7D9554933028F40C5F1F4F9FE39983E5
S1130CB00DC0833631F0833771F0833509F059C0A4
S1130CC021C0F801808189830E5F1F4F882483949B
S1130CD0912C530113C02801F2E04F0E511CF8016E
S1130CE0A080B18036FE03C0692D70E002C06FEFB2
S1130CF07FEFC5010E94C0074C018201F32DFF77ED
S1130D003F2E16C0280122E0420E511CF801A0809B
S1130D10B18036FE03C0692D70E002C06FEF7FEF33
S1130D20C5010E94B5074C01F32DF0683F2E8201E6
S1130D3033FC1BC0822D90E088169906B0F4B601EE
S1130D4080E290E00E94CB072A94F4CFF50137FCAF
S1130D50859137FE81915F01B60190E00E94CB0737
S1130D6021102A9421E0821A91088114910471F7C8
S1130D70E8C0843611F0893641F5F80137FE07C022
S1130D8060817181828193810C5F1F4F08C06081F3
S1130D907181072E000C880B990B0E5F1F4FF32DEA
S1130DA0FF763F2E97FF09C09095809570956195C9
S1130DB07F4F8F4F9F4FF0683F2E2AE030E0A30112
S1130DC00E940708882E861845C0853731F4232DE4
S1130DD02F7EB22E2AE030E025C0932D997FB92EC4
S1130DE08F36C1F018F4883579F0B5C0803719F022
S1130DF0883721F0B0C0E92FE061BE2EB4FE0DC0EB
S1130E00FB2DF460BF2E09C034FE0AC0292F2660D2
S1130E10B22E06C028E030E005C020E130E002C078
S1130E2020E132E0F801B7FE07C060817181828160
S1130E3093810C5F1F4F06C06081718180E090E058
S1130E400E5F1F4FA3010E940708882E8618FB2DF2
S1130E50FF773F2E36FE0DC0232D2E7FA22E891440
S1130E6058F434FE0BC032FC09C0832D8E7EA82EAC
S1130E7005C0B82CA32C03C0B82C01C0B92CA4FE07
S1130E800FC0FE01E80DF11D8081803321F49A2DFD
S1130E90997EA92E09C0A2FE06C0B394B39404C0DF
S1130EA08A2D867809F0B394A3FC11C0A0FE06C075
S1130EB0B21488F4280C922C9B180EC0B21460F45F
S1130EC0B60180E290E00E94CB07B394F7CFB2144E
S1130ED018F42B1802C0982C212CA4FE10C0B601C3
S1130EE080E390E00E94CB07A2FE17C0A1FC03C0E0
S1130EF088E790E002C088E590E0B6010CC08A2D36
S1130F00867859F0A1FE02C08BE201C080E2A7FC02
S1130F108DE2B60190E00E94CB07891438F4B60143
S1130F2080E390E00E94CB079A94F7CF8A94F30170
S1130F30E80DF11D8081B60190E00E94CB0781107D
S1130F40F5CF222009F442CEB60180E290E00E945F
S1130F50CB072A94F6CFF6018681978102C08FEFE2
S1130F609FEF2B96E2E10C948108FC0105906150FF
S1130F7070400110D8F7809590958E0F9F1F0895AB
S1130F80FC016150704001900110D8F78095909554
S1130F908E0F9F1F08950F931F93CF93DF93FB0131
S1130FA0238121FD03C08FEF9FEF2CC022FF16C0C9
S1130FB046815781248135814217530744F4A08127
S1130FC0B1819D012F5F3F4F318320838C93268114
S1130FD037812F5F3F4F3783268314C08B01EC0189
S1130FE0FB010084F185E02D0995892BE1F6D801F8
S1130FF016968D919C911797019617969C938E93B4
S11310001697CE01DF91CF911F910F910895FA01A8
S1131010AA27283051F1203181F1E8946F936E7F33
S11310206E5F7F4F8F4F9F4FAF4FB1E03ED0B4E024
S11310303CD0670F781F891F9A1FA11D680F791F65
S11310408A1F911DA11D6A0F711D811D911DA11D76
S113105020D009F468943F912AE0269F1124301986
S1131060305D3193DEF6CF010895462F4770405D21
S11310704193B3E00FD0C9F7F6CF462F4F70405DD0
S11310804A3318F0495D31FD4052419302D0A9F72B
S1131090EACFB4E0A6959795879577956795BA9525
S11310A0C9F700976105710508959B01AC010A2EEB
S11310B006945795479537952795BA95C9F7620FC2
S11310C0731F841F951FA01D08952F923F924F9266
S11310D05F926F927F928F929F92AF92BF92CF92C4
S11310E0DF92EF92FF920F931F93CF93DF93CDB7CD
S11310F0DEB7CA1BDB0B0FB6F894DEBF0FBECDBF45
S113110009942A88398848885F846E847D848C8415
S11311109B84AA84B984C884DF80EE80FD800C811E
S11311201B81AA81B981CE0FD11D0FB6F894DEBF01
S10F11300FBECDBFED010895F894FFCF71
S113113C93020003C2034104D40443616E63696FD8
S113114C6E65733A200D0009312E205468652053C6
S113115C696D70736F6E73200D0009322E204D690A
S113116C7373696F6E20496D706F737369626C650C
S113117C0D0009332E204261746D616E0D0009342B
S113118C2E204C612070616E7465726120726F73D5
S113119C610D0009352E204164616D732046616D2B
S11311AC696C790D0009362E20417267656E74697D
S11311BC6E610D00504C41590053544F5000524530
S11311CC534554004E554D2000436F6D616E646F52
S11311DC206E6F2076616C69646F2E0D0A000952C3
S11311EC6570726F64756369656E646F092D2D3E4D
S11311FC202564200D000A094572726F723A204E44
S113120C6F2073652068612073656C656363696F17
S113121C6E61646F20756E612063616E63696F6EBD
S113122C2E2E2E200A0D0043616E63696F6E2064AE
S113123C6574656E6964610D000943616E63696F61
S113124C6E20656C6567696461092D2D3E202564EB
S113125C200D00526573657465616E646F202E2ECB
S113126C2E0D0006011501260137014A015D01729C
S113127C0188019F01B801D201EE010B022A024B35
S113128C026E029302BA02E40210033E037003A43A
S113129C03DC03170455049704DC0427057505C8FF
S11312AC0520067C06E0064907B8072D08AA082D78
S11312BC09B9094D0AEA0A900B400CF80CC00D90C0
S11312CC0E6F0F54686553696D70736F6E733A6467
S11312DC3D342C6F3D352C623D3136303A632E361D
S11312EC2C65362C6623362C3861362C672E362C1E
S11312FC65362C63362C38612C3866232C386623DF
S113130C2C3866232C32672C38702C38702C3866A9
S113131C232C3866232C3866232C38672C61232E17
S113132C2C3863362C3863362C3863362C633600F1
S113133C496E6469616E613A643D342C6F3D352CA1
S113134C623D3235303A652C38702C38662C38674F
S113135C2C38702C3163362C38702E2C642C38704D
S113136C2C38652C31662C702E2C672C38702C384C
S113137C612C38622C38702C3166362C702C612C14
S113138C38702C38622C3263362C3264362C32652D
S113139C362C652C38702C38662C38672C38702C0D
S11313AC3163362C702C64362C38702C3865362C02
S11313BC31662E362C672C38702C38672C652E36FB
S11313CC2C38702C64362C38702C38672C652E36DF
S11313DC2C38702C64362C38702C38672C662E36CE
S11313EC2C38702C65362C38702C3864362C3263BF
S11313FC36006B696C6C696E67206D6520736F6663
S113140C746C793A643D342C6F3D352C623D393023
S113141C3A702C38652C662C672C38612C612C386E
S113142C672C642C672E2C702C38702C38612C672C
S113143C2C38662C38652C38652C38662C32632C89
S113144C702C38652C662C672C38612C612C386711
S113145C2C612C622C38622C3863362C38622C317B
S113146C36612C38672C3136612C32612C32612E6A
S113147C005866696C65733A643D342C6F3D352CA9
S113148C623D3132353A652C622C612C622C643607
S113149C2C32622E2C31702C652C622C612C622C1B
S11314AC65362C32622E2C31702C67362C66233622
S11314BC2C65362C64362C65362C32622E2C31700D
S11314CC2C67362C6623362C65362C64362C662316
S11314DC362C32622E2C31702C652C622C612C62D1
S11314EC2C64362C32622E2C31702C652C622C61BF
S11314FC2C622C65362C32622E2C31702C65362CD9
S113150C32622E005A6F726261323A643D342C6F2F
S113151C3D352C623D3132353A31366323362C322B
S113152C64362C32702C31366323362C3264362CD0
S113153C32702C333265362C333264362C333263AE
S113154C23362C3264362C32702C31366323362CF1
S113155C3264362C32702C3136622C3263362C3297
S113156C702C333264362C333263362C3332622C87
S113157C3263362C32702C313661232C32622C704F
S113158C2C38702C333263362C3332622C33326168
S113159C2C3332672C3332622C32612C32702C3364
S11315AC32612C3332672C333266232C3332612C68
S11315BC31672C31702C386323362C3864362C3834
S11315CC64362C3864362C3864362C3864362C3813
S11315DC64362C3864362C386323362C3864362C19
S11315EC3864362C3864362C3864362C3864362CF3
S11315FC313665362C313664362C31366323362C31
S113160C313665362C386323362C3864362C3864E2
S113161C362C3864362C3864362C3864362C3864C2
S113162C362C3864362C386323362C3864362C38F4
S113163C64362C3864362C3864362C386436000006
S9030000FC
