S01600007470332D456E7472656761626C652E73726563D1
S11300000C9434000C9451000C9451000C94510045
S11300100C9451000C9451000C9451000C94510018
S11300200C9451000C9451000C9451000C94510008
S11300300C9451000C9451000C9485000C945100C4
S11300400C9451000C9451000C943D010C945100FB
S11300500C9451000C9451000C9451000C945100D8
S11300600C9451000C94510011241FBECFEFD8E022
S1130070DEBFCDBF11E0A0E0B1E0E4EEF2E002C0EB
S113008005900D92A030B107D9F722E0A0E0B1E0CD
S113009001C01D92A131B207E1F70E9453000C94F4
S11300A070010C94000087E60E94D5000E94E600CF
S11300B00E945D000E947A00FDCF88EF87BD82E038
S11300C084BD93E095BD80936E00E0E8F0E080810C
S11300D080648083E1E8F0E080818960808384B17A
S11300E0826084B97894089581E0809302018093BA
S11300F00101089580910201882331F010920201D8
S113010080E091E00E94FF0008951F920F920FB6C5
S11301100F9211242F933F934F935F936F937F9389
S11301208F939F93AF93BF93EF93FF930E947400B9
S1130130FF91EF91BF91AF919F918F917F916F91BB
S11301405F914F913F912F910F900FBE0F901F9091
S1130150189590910401E92FF0E0E95FFE4F808348
S11301609F5F909304010895EF92FF921F93CF93A2
S1130170DF9300D0CDB7DEB77C011A82198210E07C
S113018006C0BE016F5F7F4F0E94A9001F5FF70189
S1130190E10FF11D80818111F4CF0F900F90DF9159
S11301A0CF911F91FF90EF900895E1ECF0E0108261
S11301B096E09093C2001092C5008093C4008081A1
S11301C0886080838081806180830895E1ECF0E021
S11301D0808180688083089540E050E0BA014F5FD9
S11301E05F4F6F4F7F4F21F09091C00095FFF7CF85
S11301F0452B462B472B11F08093C6000895CF93CF
S1130200DF93CDB7DEB764970FB6F894DEBF0FBEA9
S1130210CDBF80910601882389F04091030150E00D
S113022067E072E0CE0101960E94670187E092E0E8
S11302300E94B4001092060110920301E09105019E
S113024080910401E81760F4F0E0E95FFE4F8081DB
S11302500E94EC00809105018F5F8093050104C02A
S1130260109205011092040164960FB6F894DEBF53
S11302700FBECDBFDF91CF9108951F920F920FB69D
S11302800F9211248F939F93EF93FF939091C60045
S11302909D3059F080910301E82FF0E0E95FFD4FB4
S11302A090838F5F8093030109C0E0910301F0E024
S11302B0E95FFD4F108281E080930601FF91EF9189
S11302C09F918F910F900FBE0F901F901895FB0177
S11302D0DC0102C001900D9241505040D8F70895BE
S10702E0F894FFCFBC
S9030000FC
