:100000000C9434000C9451000C9451000C94510049
:100010000C9451000C9451000C9451000C9451001C
:100020000C9451000C9451000C9451000C9451000C
:100030000C9451000C9451000C949C000C945100B1
:100040000C9451000C9451000C9488010C945001B4
:100050000C9451000C9451000C9451000C945100DC
:100060000C9451000C94510011241FBECFEFD8E026
:10007000DEBFCDBF11E0A0E0B1E0EEE9F3E002C0E9
:1000800005900D92AC3DB107D9F722E0ACEDB1E09F
:1000900001C01D92AD3EB207E1F70E9453000C94DF
:1000A000CD010C94000087E60E9414010E942501F6
:1000B0000E9474000E945F000E949100FDCF80E0CA
:1000C00091E00E94CB0088E091E00E94CB0085E3A4
:1000D00091E00E94CB008CE691E00E94CB008AEA7E
:1000E00091E00E94CB00089588EF87BD82E084BD37
:1000F00093E095BD80936E00E0E8F0E0808180643D
:100100008083E1E8F0E080818960808384B182604F
:1001100084B97894089581E08093DE018093DD01B5
:1001200008958091DE01882331F01092DE018CED7C
:1001300091E00E94EC0008951F920F920FB60F926B
:1001400011242F933F934F935F936F937F938F93DC
:100150009F93AF93BF93EF93FF930E948B00FF9108
:10016000EF91BF91AF919F918F917F916F915F912F
:100170004F913F912F910F900FBE0F901F901895A8
:100180009091E001E92FF0E0ED51FE4F80839F5FF9
:100190009093E0010895EF92FF921F93CF93DF9326
:1001A00000D0CDB7DEB77C011A82198210E006C0FC
:1001B000BE016F5F7F4F0E94C0001F5FF701E10F1C
:1001C000F11D80818111F4CF0F900F90DF91CF91BD
:1001D0001F91FF90EF900895CF93DF93CDB7DEB7D7
:1001E00064970FB6F894DEBF0FBECDBF8091E201D9
:1001F000882389F04091DF0150E063EE72E0CE0188
:1002000001960E94C40183EE92E00E94CB001092FE
:10021000E2011092DF0164960FB6F894DEBF0FBEC4
:10022000CDBFDF91CF910895E1ECF0E0108296E030
:100230009093C2001092C5008093C40080818860B2
:1002400080838081806180830895E1ECF0E080818B
:10025000806280830895E1ECF0E080818F7D80836F
:100260000895E1ECF0E08081806880830895E1ECFE
:10027000F0E080818F678083089540E050E0BA010C
:100280004F5F5F4F6F4F7F4F21F09091C00095FF00
:10029000F7CF452B462B472B11F08093C6000895CE
:1002A0001F920F920FB60F9211242F933F934F93EB
:1002B0005F936F937F938F939F93AF93BF93EF93CE
:1002C000FF93E091E101F0E0ED51FE4F8081882342
:1002D00041F00E943D018091E1018F5F8093E10137
:1002E00006C01092E1010E942B010E943101FF9192
:1002F000EF91BF91AF919F918F917F916F915F919E
:100300004F913F912F910F900FBE0F901F90189516
:100310001F920F920FB60F9211242F933F934F937A
:100320005F936F937F938F939F93AF93BF93EF935D
:10033000FF939091C6009D3059F08091DF01E82F26
:10034000F0E0ED51FD4F90838F5F8093DF010BC094
:10035000E091DF01F0E0ED51FD4F108281E08093EC
:10036000E2010E943701FF91EF91BF91AF919F9100
:100370008F917F916F915F914F913F912F910F904E
:100380000FBE0F901F901895FB01DC0102C0019079
:0E0390000D9241505040D8F70895F894FFCFD9
:10039E004D656E753A0A0D00092A20504C41593AA6
:1003AE0020726570726F64756365206C6120636185
:1003BE006E63696F6E2073656C656363696F6E61E2
:1003CE0064610A0D00092A2053544F503A20646587
:1003DE007469656E65206C6120726570726F6475EC
:1003EE006363696F6E2064656C20736F6E69646FF2
:1003FE0020656E20637572736F0A0D00092A204EF8
:10040E00554D3A206E756D65726F2064652063617F
:10041E006E63696F6E20612073656C656363696FCF
:10042E006E6172206465206C61206C69737461204A
:10043E005B312061204E5D0A0D00092A2052455382
:10044E0045543A207265696E6963696120656C2056
:10045E0073697374656D6120616C2065737461647A
:0C046E006F20696E696369616C0A0D0003
:00000001FF
