:100000000C943B000C9458000C9458000C9458002D
:100010000C9458000C9458000C9458000C94580000
:100020000C9458000C9458000C9458000C945800F0
:100030000C9458000C9458000C945A000C945800DE
:100040000C9458000C9458000C9458000C945800D0
:100050000C9458000C9458000C9458000C945800C0
:100060000C9458000C945800A001A201A40198011E
:100070009A019C019E0111241FBECFEFD8E0DEBF84
:10008000CDBF18E0A0E0B1E0E4E4F5E002C00590E7
:100090000D92A838B107D9F728E0A8E8B8E001C068
:1000A0001D92AB39B207E1F70E9421020C94A00225
:1000B0000C9400001F920F920FB60F9211248F9391
:1000C0009F938091980890919908009731F001973B
:1000D000909399088093980806C01092800010921F
:1000E0008908109288089F918F910F900FBE0F90F2
:1000F0001F9018954091880850918908452BD1F799
:100100007093990860939808E0E8F0E020812064FB
:1001100020839C0140E050E060E072E18AE790E0DB
:100120000E945902215031093093890020938800A0
:1001300081E090E0909389088093880808958F92D9
:100140009F92AF92BF92EF92FF920F931F93CF9324
:10015000DF93FC0184E0809397088FE390E0909315
:100160008B0880938A0886E080939A0801C03196B4
:1001700080818A33E1F73196AAC0843661F5109206
:100180009708DF01119601C011968C918D33E1F330
:1001900001C011968C918032E1F380538A3010F4C3
:1001A00080939708FD01319611968C9190ED980FF0
:1001B0009A3070F490919708990F292F220F220FEF
:1001C000920F890F805380939708319601C0319622
:1001D00080818C32E1F380818F36C1F410929A08CD
:1001E000319601C0319680818D33E1F301C03196A3
:1001F00080818032E1F380538A3010F480939A0832
:10020000319601C0319680818C32E1F38081823653
:1002100009F05AC010928B0810928A08DF011196DB
:1002200001C011968C918D33E1F301C011968C9130
:100230008032E1F390ED980F9A3030F490E0C0975F
:1002400090938B0880938A08FD01319611964C910A
:10025000119780ED840F8A3090F520918A083091B3
:100260008B08C901880F991F220F331F220F331FDC
:10027000220F331F820F931F840F911DC0979093FD
:100280008B0880938A08319612962C9130ED320FAC
:100290003A30A8F4AC01440F551F880F991F880FFE
:1002A000991F880F991F840F951F820F911DC0976A
:1002B00090938B0880938A08319601C03196808193
:1002C0008C32E1F301C0319680818C32E1F3808180
:1002D0008A3309F052CFEF012196A5C0F0909A0819
:1002E0000091970880538A30A0F4AE014F5F5F4FB2
:1002F000998120ED290F2A3050F4880F082F000F24
:10030000000F800F082F090F0053229602C0082FFC
:10031000EA01E8818E2F90E0FC01E156F109E73017
:10032000F10520F4EC5CFF4F0C9478021FEF0DC038
:1003300012E00BC014E009C015E007C017E005C0CB
:1003400019E003C01BE001C010E0FE013196898175
:10035000833211F41F5F319680818E3221F4319601
:10036000EE24E39401C0E12C808180538A3010F4A4
:100370003196F82E80818E3219F43196EE24E39472
:10038000EF0101C0219688818C32E1F320918A0827
:1003900030918B0840E050E060E67AEE80E090E03B
:1003A0000E945902802E912CA12CB12CCA01B901B6
:1003B000A50194010E945902220F331F220F331FFF
:1003C000EE2039F0B901660F771F260F371F3695DB
:1003D00027951F3FC1F08F2D90E00497FC01EE0F91
:1003E000FF1FE80FF91FEE0FFF1FEE0FFF1FE10FBA
:1003F000F11DEE0FFF1FEA5EFE4FB9018081918172
:100400000E947A000AC0309399082093980881E0EE
:1004100090E0909389088093880880918808909153
:100420008908892BD1F78881811158CFDF91CF912D
:100430001F910F91FF90EF90BF90AF909F908F9082
:10044000089588EF87BD82E084BD93E095BD8093D9
:100450006E00E0E8F0E0808180648083E1E8F0E015
:1004600080818960808384B1826084B97894C0E09F
:100470001DC0EC2FF0E0EE0FFF1FE050FF4F80811A
:1004800091810E949F0080ED97E09093990880935E
:10049000980881E090E09093890880938808809183
:1004A000880890918908892BD1F7CF5FCB3008F36A
:1004B000DECF052E97FB1EF400940E94700257FDBC
:1004C00007D00E947E0207FC03D04EF40C94700209
:1004D00050954095309521953F4F4F4F5F4F089570
:1004E00090958095709561957F4F8F4F9F4F0895A0
:1004F000EE0FFF1F0590F491E02D0994A1E21A2E52
:10050000AA1BBB1BFD010DC0AA1FBB1FEE1FFF1FB7
:10051000A217B307E407F50720F0A21BB30BE40B07
:10052000F50B661F771F881F991F1A9469F760954E
:100530007095809590959B01AC01BD01CF01089508
:04054000F894FFCF5D
:100544007601E301B6023A03A2034F04F904BB05A2
:100554003A06B9064C0706011501260137014A017E
:100564005D01720188019F01B801D201EE010B0205
:100574002A024B026E029302BA02E40210033E0303
:100584007003A403DC03170455049704DC04270553
:100594007505C80520067C06E0064907B8072D083E
:1005A400AA082D09B9094D0AEA0A900B400CF80C67
:1005B400C00D900E6F0F54686553696D70736F6E44
:1005C400733A643D342C6F3D352C623D3136303AFC
:1005D400632E362C65362C6623362C3861362C6710
:1005E4002E362C65362C63362C38612C3866232C39
:1005F4003866232C3866232C32672C38702C3870DC
:100604002C3866232C3866232C3866232C38672C28
:1006140061232E2C3863362C3863362C3863362C01
:100624006336004D697373696F6E496D703A643D4A
:10063400342C6F3D362C623D3135303A31366435D9
:100644002C31366423352C313664352C3136642311
:10065400352C313664352C31366423352C313664EF
:10066400352C313664352C31366423352C313665DE
:10067400352C313666352C31366623352C313667C8
:10068400352C3867352C34702C3867352C34702C65
:10069400386123352C38702C3863362C38702C385C
:1006A40067352C34702C3867352C34702C3866350B
:1006B4002C38702C38702C3867352C34702C3470EE
:1006C4002C386123352C38702C3863362C38702C38
:1006D4003867352C34702C34702C3866352C3870CF
:1006E4002C386623352C38702C386123352C386728
:1006F400352C316435004261746D616E3A643D3865
:100704002C6F3D352C623D3136303A3136612C3117
:100714003667232C3136672C313666232C31366606
:100724002C313666232C3136672C313667232C3432
:10073400612E2C702C642C642C63232C63232C6377
:100744002C632C63232C63232C642C642C63232CB4
:1007540063232C632C632C63232C63232C642C646D
:100764002C63232C63232C632C632C63232C63239F
:100774002C67362C702C3467360050696E6B7061B0
:100784006E746865723A643D31362C6F3D352C6267
:100794003D3136303A3864232C38652C32702C388D
:1007A40066232C38672C32702C3864232C38652C43
:1007B400702C3866232C38672C702C3863362C3810
:1007C400622C702C3864232C38652C702C38622CE5
:1007D4003261232C32702C612C672C652C642C32F2
:1007E40065004164616D7366616D696C793A643D5D
:1007F400342C6F3D352C623D3136303A38632C66EB
:100804002C38612C662C38632C62342C32672C38DB
:10081400662C652C38672C652C3865342C61342C97
:1008240032662C38632C662C38612C662C38632C89
:1008340062342C32672C38662C652C38632C642C7B
:1008440038652C31662C38632C38642C38652C3888
:10085400662C31702C38642C38652C3866232C387F
:10086400672C31702C38642C38652C3866232C386E
:10087400672C702C38642C38652C3866232C386728
:100884002C702C38632C38642C38652C3866004165
:100894007267656E74696E613A643D342C6F3D35E0
:1008A4002C623D37303A38652E342C3865342C3878
:1008B40065342C38652E342C3866342C3867342C47
:1008C4003861342C67342C38702C3867342C3861F8
:1008D400342C3861342C3867342C632C67342C382E
:1008E40066342C652E342C38702C3865342C3866DC
:1008F400342C3867342C3864342C64342C38643405
:100904002C3865342C3866342C63342C3136702CF6
:100914003863342C3864342C3863342C3865342CE4
:1009240067342C3136702C3867342C3867342C38C3
:1009340061342C632C31367000496E6469616E61D8
:100944003A643D342C6F3D352C623D3235303A6586
:100954002C38702C38662C38672C38702C31633660
:100964002C38702E2C642C38702C38652C31662C65
:10097400702E2C672C38702C38612C38622C38700F
:100984002C3166362C702C612C38702C38622C3249
:1009940063362C3264362C3265362C652C38702C38
:1009A40038662C38672C38702C3163362C702C64E4
:1009B400362C38702C3865362C31662E362C672C44
:1009C40038702C38672C652E362C38702C64362CF5
:1009D40038702C38672C652E362C38702C64362CE5
:1009E40038702C38672C662E362C38702C65362CD3
:1009F40038702C3864362C326336006B696C6C6941
:100A04006E67206D6520736F66746C793A643D344B
:100A14002C6F3D352C623D39303A702C38652C668C
:100A24002C672C38612C612C38672C642C672E2C95
:100A3400702C38702C38612C672C38662C38652C57
:100A440038652C38662C32632C702C38652C662C57
:100A5400672C38612C612C38672C612C622C38622D
:100A64002C3863362C38622C3136612C38672C31A3
:100A740036612C32612C32612E0057616E6E6162D8
:100A8400653A203A643D342C6F3D352C623D313259
:100A9400353A3136672C3136672C3136672C31368E
:100AA400672C38672C38612C38672C38652C3870E3
:100AB4002C3136632C3136642C3136632C38642C5B
:100AC40038642C38632C652C702C38672C38672CD0
:100AD40038672C38612C38672C38652C38702C63B7
:100AE400362C3863362C38622C38672C38612C311C
:100AF40036622C3136612C67005866696C65733A2E
:100B0400643D342C6F3D352C623D3132353A652CD1
:100B1400622C612C622C64362C32622E2C31702CA7
:100B2400652C622C612C622C65362C32622E2C31A1
:100B3400702C67362C6623362C65362C64362C656F
:100B4400362C32622E2C31702C67362C6623362CD0
:100B540065362C64362C6623362C32622E2C31708A
:100B64002C652C622C612C622C64362C32622E2C67
:100B740031702C652C622C612C622C65362C32620F
:100B84002E2C31702C65362C32622E005A6F726214
:100B940061323A643D342C6F3D352C623D3132353F
:100BA4003A31366323362C3264362C32702C31368B
:100BB4006323362C3264362C32702C333265362C57
:100BC400333264362C33326323362C3264362C327F
:100BD400702C31366323362C3264362C32702C312F
:100BE40036622C3263362C32702C333264362C331A
:100BF4003263362C3332622C3263362C32702C3111
:100C04003661232C32622C702C38702C33326336CC
:100C14002C3332622C3332612C3332672C33326200
:100C24002C32612C32702C3332612C3332672C33EA
:100C34003266232C3332612C31672C31702C3863AB
:100C440023362C3864362C3864362C3864362C38E9
:100C540064362C3864362C3864362C3864362C3898
:100C64006323362C3864362C3864362C3864362C9E
:100C74003864362C3864362C313665362C3136647B
:100C8400362C31366323362C313665362C386323C3
:100C9400362C3864362C3864362C3864362C386458
:100CA400362C3864362C3864362C3864362C386349
:100CB40023362C3864362C3864362C3864362C3879
:080CC40064362C386436000090
:00000001FF
