:100000000C943B000C9458000C9458000C9458002D
:100010000C9458000C9458000C9458000C94580000
:100020000C9458000C9458000C9458000C945800F0
:100030000C9458000C9458000C9491030C945800A4
:100040000C9458000C9458000C945F040C941D04FC
:100050000C9458000C9458000C9458000C945800C0
:100060000C9458000C945800E302E502E702DB020E
:10007000DD02DF02E10211241FBECFEFD8E0DEBFB8
:10008000CDBF16E0A0E0B1E0E4E2F0E102C00590EF
:100090000D92A63EB107D9F728E0A6EEB6E001C062
:1000A0001D92A83FB207E1F70E9465000C9410086A
:1000B0000C94000098E088E10FB6F894A89580931E
:1000C00060000FBE90936000089587E60E94B7031A
:1000D0000E947A000E9469032FEF81EE94E0215084
:1000E00080409040E1F700C000000E9497000E940D
:1000F0008403FDCF8AE091E00E94DB0387E191E079
:100100000E94DB038AE291E00E94DB0382E491E03B
:100110000E94DB038EE491E00E94DB0383E691E022
:100120000E94DB0385E791E00E94DB03089584E8E9
:1001300091E00E94DB038BE891E00E94DB0387EBF8
:1001400091E00E94DB038DEE91E00E94DB038AE2E6
:1001500092E00E94DB030895FC01442339F020E083
:1001600030E023C095132DC04F5F01C040E0242F25
:1001700030E0DF01A20FB31F9C91992331F0DB0126
:10018000A20FB31F5C915111EDCF911108C0FB017B
:10019000E20FF31F8081882321F080E0089580E042
:1001A000089581E008952F5F3F4FDF01A20FB31F35
:1001B0008C918111F8CFCF010E9400058093E60653
:1001C000089580E00895CF93DF93EC0140E06BE564
:1001D00072E00E94AC00882321F081E08093E70662
:1001E00030C040E060E672E0CE010E94AC0088239F
:1001F00021F082E08093E70624C040E065E672E0EB
:10020000CE010E94AC00882321F084E08093E706B1
:1002100018C041E06BE672E0CE010E94AC0088237A
:1002200051F08091E606882331F0873020F483E096
:100230008093E70606C080E792E00E94DB031092FD
:10024000E606DF91CF9108950F931F93CF93DF932D
:10025000CDB7DEB76E970FB6F894DEBF0FBECDBF39
:100260008091E706823099F118F4813039F05CC052
:100270008330A9F1843009F44EC056C08091E6065F
:100280009FEF980F9630D8F41F928F9385E892E0F5
:100290009F938F938E010F5F1F4F1F930F930E94A9
:1002A0002605C8010E94DB038091E6060E94DA0160
:1002B0000F900F900F900F900F900F9004C08DE94A
:1002C00092E00E94DB038FEF8093E7062DC08EEC57
:1002D00092E00E94DB038FEF8093E70625C08091B8
:1002E000E6061F928F9380EE92E09F938F938E018C
:1002F0000F5F1F4F1F930F930E942605C8010E9496
:10030000DB038FEF8093E7060F900F900F900F9015
:100310000F900F9009C08AEF92E00E94DB038FEFED
:100320008093E7060E945A006E960FB6F894DEBFDF
:100330000FBECDBFDF91CF911F910F910895809394
:10034000E80608954091E9065091EA06452BD1F759
:100350007093F6066093F506E0E8F0E020812064F3
:1003600020839C0140E050E060E072E18AE790E089
:100370000E94B904215031093093890020938800EC
:1003800081E090E09093EA068093E90608958091D9
:10039000F5069091F606009731F001979093F606D6
:1003A0008093F5060895109280001092EA0610924C
:1003B000E90608958F929F92AF92BF92EF92FF92BB
:1003C0000F931F93CF93DF93E82FF0E0EE0FFF1F03
:1003D000E050FF4F0190F081E02D84E08093F4061F
:1003E0008FE390E09093F3068093F20686E080938B
:1003F000F70601C0319680818A33E1F73196AAC0B1
:10040000843661F51092F406DF01119601C0119651
:100410008C918D33E1F301C011968C918032E1F320
:1004200080538A3010F48093F406FD0131961196C2
:100430008C9190ED980F9A3070F49091F406990F8A
:10044000292F220F220F920F890F80538093F406D9
:10045000319601C0319680818C32E1F380818F36F4
:10046000C1F41092F706319601C0319680818D3328
:10047000E1F301C0319680818032E1F380538A300C
:1004800010F48093F706319601C0319680818C324A
:10049000E1F38081823609F05AC01092F30610927F
:1004A000F206DF01119601C011968C918D33E1F3B4
:1004B00001C011968C918032E1F390ED980F9A3043
:1004C00030F490E0C0979093F3068093F206FD011C
:1004D000319611964C91119780ED840F8A3090F5EA
:1004E0002091F2063091F306C901880F991F220F5F
:1004F000331F220F331F220F331F820F931F840FCE
:10050000911DC0979093F3068093F2063196129650
:100510002C9130ED320F3A30A8F4AC01440F551F46
:10052000880F991F880F991F880F991F840F951F97
:10053000820F911DC0979093F3068093F206319637
:1005400001C0319680818C32E1F301C03196808107
:100550008C32E1F380818A3309F052CFEF0121968A
:10056000A5C0F090F7060091F40680538A30A0F4FD
:10057000AE014F5F5F4F998120ED290F2A3050F473
:10058000880F082F000F000F800F082F090F00534E
:10059000229602C0082FEA01E8818E2F90E0FC012C
:1005A000E156F109E730F10520F4EC5CFF4F0C94C3
:1005B000D8041FEF0DC012E00BC014E009C015E015
:1005C00007C017E005C019E003C01BE001C010E040
:1005D000FE0131968981833211F41F5F319680814B
:1005E0008E3221F43196EE24E39401C0E12C808117
:1005F00080538A3010F43196F82E80818E3219F4AF
:100600003196EE24E394EF0101C0219688818C326B
:10061000E1F32091F2063091F30640E050E060E60D
:100620007AEE80E090E00E94B904802E912CA12CFB
:10063000B12CCA01B901A50194010E94B904220F8D
:10064000331F220F331FEE2039F0B901660F771FD9
:10065000260F371F369527951F3FC1F08F2D90E04D
:100660000497FC01EE0FFF1FE80FF91FEE0FFF1FAD
:10067000EE0FFF1FE10FF11DEE0FFF1FE65FFC4FB6
:10068000B901808191810E94A2010AC03093F606CF
:100690002093F50681E090E09093EA068093E906C6
:1006A0008091E9069091EA06892BD1F78881882309
:1006B00029F09091E806992309F453CFDF91CF9167
:1006C0001F910F91FF90EF90BF90AF909F908F90F0
:1006D000089588EF87BD82E084BD93E095BD809347
:1006E0006E00E0E8F0E0808180648083E1E8F0E083
:1006F00080818960808384B1826084B97894089510
:1007000081E08093EC0608958091EC06882331F017
:100710001092EC068BEE96E00E940E040E942401DB
:1007200008951F920F920FB60F9211242F933F93AB
:100730004F935F936F937F938F939F93AF93BF93E9
:10074000EF93FF930E9480030E94C701FF91EF91F6
:10075000BF91AF919F918F917F916F915F914F91D9
:100760003F912F910F900FBE0F901F901895E1ECC5
:10077000F0E0108296E09093C2001092C500809342
:10078000C400808188608083808180618083089537
:10079000E1ECF0E080818062808308959091EE0624
:1007A000E92FF0E0E850F94F80839F5F9093EE06C9
:1007B0000E94C8030895EF92FF921F93CF93DF9397
:1007C00000D0CDB7DEB77C011A82198210E006C0D6
:1007D000BE016F5F7F4F0E94CE031F5FF701E10FE5
:1007E000F11D80818111F4CF0F900F90DF91CF9197
:1007F0001F91FF90EF900895E1ECF0E080818F7DF4
:1008000080830895E1ECF0E0808180688083089522
:10081000E1ECF0E080818F77808308950E940204EC
:100820008091F106882341F088EF97E00E94E30071
:100830001092ED061092F10608951F920F920FB6D6
:100840000F9211242F933F934F935F936F937F9356
:100850008F939F93AF93BF93EF93FF938091EF0696
:100860009091EE06891306C0E1ECF0E080818F7D67
:10087000808314C0E82FF0E0E850F94F908199236D
:1008800031F08F5F8093EF069093C60007C0E1ECD4
:10089000F0E080818F7D80830E94FC03FF91EF91C7
:1008A000BF91AF919F918F917F916F915F914F9188
:1008B0003F912F910F900FBE0F901F9018951F9290
:1008C0000F920FB60F9211242F933F934F935F9384
:1008D0006F937F938F939F93AF93BF93CF93EF9338
:1008E000FF93C091C600CD3069F0CA3059F08091B5
:1008F000ED06E82FF0E0E850F84FC0838F5F80935B
:10090000ED061FC0CD3051F48091ED06E82FF0E0E8
:10091000E850F84F10828F5F8093ED06CA3089F45B
:1009200081E08093F10640E060E672E088EF97E0B6
:100930000E94AC00882319F081E00E949F010E9470
:1009400008046091F00670E08C2F0E94CE03FF91A6
:10095000EF91CF91BF91AF919F918F917F916F91C7
:100960005F914F913F912F910F900FBE0F901F906D
:100970001895052E97FB1EF400940E94D00457FD95
:1009800007D00E94DE0407FC03D04EF40C94D00480
:1009900050954095309521953F4F4F4F5F4F0895AB
:1009A00090958095709561957F4F8F4F9F4F0895DB
:1009B000EE0FFF1F0590F491E02D0994A1E21A2E8D
:1009C000AA1BBB1BFD010DC0AA1FBB1FEE1FFF1FF3
:1009D000A217B307E407F50720F0A21BB30BE40B43
:1009E000F50B661F771F881F991F1A9469F760958A
:1009F0007095809590959B01AC01BD01CF01089544
:100A0000FC0188279927E89421912032E9F32930C5
:100A100010F02E30C8F32B3241F02D3239F46894A7
:100A200004C00E941E05820F911D219120532A307F
:100A3000C0F31EF4909581959F4F08957AE0979F9B
:100A4000902D879F802D910D11240895AEE0B0E088
:100A5000ECE2F5E00C94E7070D891E8986E08C83B3
:100A60001A8309838FEF9FE79E838D83AE01475ED4
:100A70005F4F6F89788DCE0101960E944805EF8106
:100A8000F885E00FF11F10822E96E4E00C94030825
:100A9000ABE0B0E0EEE4F5E00C94D9076C017B012B
:100AA0008A01FC0117821682838181FFCCC1CE01AD
:100AB00001963C01F6019381F70193FD859193FF27
:100AC00081917F01882309F4BAC1853239F493FDFD
:100AD000859193FF81917F01853229F4B60190E0E1
:100AE0000E943F07E7CF912C212C312CFFE1F31519
:100AF000D8F08B3279F038F4803279F08332A1F477
:100B0000232D20611DC08D3261F0803369F4232DC7
:100B1000216016C0832D8260382EE32DE4603E2EC6
:100B20002AC0F32DF8601DC037FC2DC020ED280F22
:100B30002A3040F08E32B9F436FC81C1232D206476
:100B4000322E19C036FE06C08AE0989E200D112470
:100B5000922E11C0EAE02E9E200D1124222EF32D9C
:100B6000F0623F2E08C08C3621F4832D8068382E29
:100B700002C0883641F4F70193FD859193FF81917E
:100B80007F018111B3CF982F9F7D9554933028F426
:100B90000C5F1F4F9FE399830DC0833631F083377D
:100BA00071F0833509F059C021C0F8018081898333
:100BB0000E5F1F4F88248394912C530113C028018A
:100BC000F2E04F0E511CF801A080B18036FE03C048
:100BD000692D70E002C06FEF7FEFC5010E943407FE
:100BE0004C018201F32DFF773F2E16C0280122E031
:100BF000420E511CF801A080B18036FE03C0692D61
:100C000070E002C06FEF7FEFC5010E9429074C0121
:100C1000F32DF0683F2E820133FC1BC0822D90E043
:100C200088169906B0F4B60180E290E00E943F0772
:100C30002A94F4CFF50137FC859137FE81915F014D
:100C4000B60190E00E943F0721102A9421E0821A09
:100C500091088114910471F7E8C0843611F0893647
:100C600041F5F80137FE07C060817181828193816F
:100C70000C5F1F4F08C060817181072E000C880B2C
:100C8000990B0E5F1F4FF32DFF763F2E97FF09C084
:100C900090958095709561957F4F8F4F9F4FF0682D
:100CA0003F2E2AE030E0A3010E947B07882E8618A1
:100CB00045C0853731F4232D2F7EB22E2AE030E057
:100CC00025C0932D997FB92E8F36C1F018F4883541
:100CD00079F0B5C0803719F0883721F0B0C0E92F1E
:100CE000E061BE2EB4FE0DC0FB2DF460BF2E09C026
:100CF00034FE0AC0292F2660B22E06C028E030E05C
:100D000005C020E130E002C020E132E0F801B7FE8A
:100D100007C060817181828193810C5F1F4F06C083
:100D20006081718180E090E00E5F1F4FA3010E94FF
:100D30007B07882E8618FB2DFF773F2E36FE0DC0D1
:100D4000232D2E7FA22E891458F434FE0BC032FCC2
:100D500009C0832D8E7EA82E05C0B82CA32C03C0FD
:100D6000B82C01C0B92CA4FE0FC0FE01E80DF11D86
:100D70008081803321F49A2D997EA92E09C0A2FE8C
:100D800006C0B394B39404C08A2D867809F0B39456
:100D9000A3FC11C0A0FE06C0B21488F4280C922C4B
:100DA0009B180EC0B21460F4B60180E290E00E947D
:100DB0003F07B394F7CFB21418F42B1802C0982C45
:100DC000212CA4FE10C0B60180E390E00E943F07F2
:100DD000A2FE17C0A1FC03C088E790E002C088E52E
:100DE00090E0B6010CC08A2D867859F0A1FE02C0B1
:100DF0008BE201C080E2A7FC8DE2B60190E00E9488
:100E00003F07891438F4B60180E390E00E943F0761
:100E10009A94F7CF8A94F301E80DF11D8081B60111
:100E200090E00E943F078110F5CF222009F442CEC6
:100E3000B60180E290E00E943F072A94F6CFF601C7
:100E40008681978102C08FEF9FEF2B96E2E10C9491
:100E5000F507FC010590615070400110D8F78095AE
:100E600090958E0F9F1F0895FC0161507040019076
:100E70000110D8F7809590958E0F9F1F08950F93BE
:100E80001F93CF93DF93FB01238121FD03C08FEFDD
:100E90009FEF2CC022FF16C04681578124813581E7
:100EA0004217530744F4A081B1819D012F5F3F4F4A
:100EB000318320838C93268137812F5F3F4F378387
:100EC000268314C08B01EC01FB010084F185E02D29
:100ED0000995892BE1F6D80116968D919C9117976B
:100EE000019617969C938E931697CE01DF91CF9122
:100EF0001F910F910895FA01AA27283051F120314E
:100F000081F1E8946F936E7F6E5F7F4F8F4F9F4F9D
:100F1000AF4FB1E03ED0B4E03CD0670F781F891FDF
:100F20009A1FA11D680F791F8A1F911DA11D6A0FAD
:100F3000711D811D911DA11D20D009F468943F9160
:100F40002AE0269F11243019305D3193DEF6CF015F
:100F50000895462F4770405D4193B3E00FD0C9F725
:100F6000F6CF462F4F70405D4A3318F0495D31FD92
:100F70004052419302D0A9F7EACFB4E0A6959795E5
:100F8000879577956795BA95C9F7009761057105BB
:100F900008959B01AC010A2E069457954795379505
:100FA0002795BA95C9F7620F731F841F951FA01D5F
:100FB00008952F923F924F925F926F927F928F92FD
:100FC0009F92AF92BF92CF92DF92EF92FF920F93D8
:100FD0001F93CF93DF93CDB7DEB7CA1BDB0B0FB6E2
:100FE000F894DEBF0FBECDBF09942A88398848889F
:100FF0005F846E847D848C849B84AA84B984C88435
:10100000DF80EE80FD800C811B81AA81B981CE0F2B
:10101000D11D0FB6F894DEBF0FBECDBFED01089510
:04102000F894FFCF72
:101024006A03D70399041805AB0543616E63696FBE
:101034006E65733A200D0009312E205468652053E3
:10104400696D70736F6E73200D0009322E204D6927
:101054007373696F6E20496D706F737369626C6529
:101064000D0009332E204261746D616E0D00093448
:101074002E204C612070616E7465726120726F73F2
:10108400610D0009352E204164616D732046616D48
:10109400696C790D0009362E20417267656E74699A
:1010A4006E610D004D656E753A0D00092A20504C95
:1010B40041593A20726570726F64756365206C6182
:1010C4002063616E63696F6E2073656C6563636929
:1010D4006F6E6164610D00092A2053544F503A2009
:1010E40064657469656E65206C6120726570726FE9
:1010F40064756363696F6E2064656C20736F6E69D9
:10110400646F20656E20637572736F0D00092A2069
:101114004E554D3A206E756D65726F20646520637F
:10112400616E63696F6E20612073656C65636369CA
:101134006F6E6172206465206C61206C69737461E8
:10114400205B312061204E5D0D00092A2052455359
:1011540045543A207265696E6963696120656C2043
:1011640073697374656D6120616C20657374616467
:101174006F20696E696369616C0D00504C415900C0
:1011840053544F50005245534554004E554D200082
:10119400436F6D616E646F206E6F2076616C69645D
:1011A4006F2E0D0A0009526570726F64756369656C
:1011B4006E646F092D2D3E202564200D000A09451B
:1011C40072726F723A204E6F2073652068612073CB
:1011D400656C656363696F6E61646F20756E612011
:1011E40063616E63696F6E2E2E2E200A0D004361BB
:1011F4006E63696F6E20646574656E6964610D0069
:101204000943616E63696F6E20656C65676964612B
:10121400092D2D3E202564200D00526573657465EB
:10122400616E646F202E2E2E0D000601150126011D
:1012340037014A015D01720188019F01B801D201A1
:10124400EE010B022A024B026E029302BA02E4027E
:1012540010033E037003A403DC031704550497042E
:10126400DC0427057505C80520067C06E006490749
:10127400B8072D08AA082D09B9094D0AEA0A900BE6
:10128400400CF80CC00D900E6F0F54686553696DD7
:1012940070736F6E733A643D342C6F3D352C623D30
:1012A4003136303A632E362C65362C6623362C388C
:1012B40061362C672E362C65362C63362C38612C1F
:1012C4003866232C3866232C3866232C32672C3856
:1012D400702C38702C3866232C3866232C386623FF
:1012E4002C38672C61232E2C3863362C3863362C2B
:1012F4003863362C633600496E6469616E613A6402
:101304003D342C6F3D352C623D3235303A652C38F6
:10131400702C38662C38672C38702C3163362C3896
:10132400702E2C642C38702C38652C31662C702E61
:101334002C672C38702C38612C38622C38702C3186
:1013440066362C702C612C38702C38622C32633643
:101354002C3264362C3265362C652C38702C386669
:101364002C38672C38702C3163362C702C64362C56
:1013740038702C3865362C31662E362C672C387034
:101384002C38672C652E362C38702C64362C38702B
:101394002C38672C652E362C38702C64362C38701B
:1013A4002C38672C662E362C38702C65362C387009
:1013B4002C3864362C326336006B696C6C696E674A
:1013C400206D6520736F66746C793A643D342C6FBC
:1013D4003D352C623D39303A702C38652C662C67CB
:1013E4002C38612C612C38672C642C672E2C702CC3
:1013F40038702C38612C672C38662C38652C38658D
:101404002C38662C32632C702C38652C662C672C97
:1014140038612C612C38672C612C622C38622C3892
:1014240063362C38622C3136612C38672C313661A6
:101434002C32612C32612E005866696C65733A64F3
:101444003D342C6F3D352C623D3132353A652C628A
:101454002C612C622C64362C32622E2C31702C655B
:101464002C622C612C622C65362C32622E2C31704D
:101474002C67362C6623362C65362C64362C653660
:101484002C32622E2C31702C67362C6623362C6558
:10149400362C64362C6623362C32622E2C31702C7A
:1014A400652C622C612C622C64362C32622E2C3119
:1014B400702C652C622C612C622C65362C32622EC9
:1014C4002C31702C65362C32622E005A6F72626198
:1014D400323A643D342C6F3D352C623D3132353A1D
:1014E40031366323362C3264362C32702C31366319
:1014F40023362C3264362C32702C333265362C333E
:101504003264362C33326323362C3264362C3270F8
:101514002C31366323362C3264362C32702C31361F
:10152400622C3263362C32702C333264362C3332D4
:1015340063362C3332622C3263362C32702C3136C3
:1015440061232C32622C702C38702C333263362C8D
:101554003332622C3332612C3332672C3332622CB7
:1015640032612C32702C3332612C3332672C33329B
:1015740066232C3332612C31672C31702C38632371
:10158400362C3864362C3864362C3864362C38645F
:10159400362C3864362C3864362C3864362C386350
:1015A40023362C3864362C3864362C3864362C3880
:1015B40064362C3864362C313665362C3136643634
:1015C4002C31366323362C313665362C386323367A
:1015D4002C3864362C3864362C3864362C3864360F
:1015E4002C3864362C3864362C3864362C38632313
:1015F400362C3864362C3864362C3864362C3864EF
:06160400362C38643600AC
:00000001FF
